:020000040800F2
:100000000080012005050008050E0008070E000805
:10001000090E00080B0E00080D0E0008000000007D
:100020000000000000000000000000000F0E0008AB
:10003000110E000800000000130E0008150E000845
:100040005505000855050008550500085505000828
:100050005505000855050008550500085505000818
:10006000210E000855050008550500085505000833
:1000700055050008550500085505000855050008F8
:100080002D0E00083D0E0008550500085505000816
:100090005505000855050008550500084D0E0008D7
:1000A00055050008550500085505000855050008C8
:1000B00055050008590E0008690E0008790E000861
:1000C000890E00085505000855050008550500086B
:1000D0005505000855050008550500085505000898
:1000E000990E00085505000855050008550500083B
:1000F0005505000855050008550500085505000878
:100100005505000855050008B50E000855050008FE
:100110005505000855050008550500085505000857
:100120005505000855050008550500085505000847
:100130005505000855050008550500085505000837
:100140005505000855050008550500080000000089
:100150005505000855050008550500085505000817
:100160005505000855050008550500085505000807
:1001700055050008550500080000000000000000BB
:080180005505000855050008B3
:1001880010B5054C237833B9044B13B10448AFF3C9
:1001980000800123237010BD08000020000000002B
:1001A800EC4200080C4B43B10C480D4910B5AFF3B5
:1001B80000800C48036823B910BD0A48036833B9A6
:1001C8007047094B002BF7D0BDE810401847064B85
:1001D800002BF5D0184700BF00000000EC420008D3
:1001E8000C000020080000200000000053B94AB9A4
:1001F800002908BF00281CBF4FF0FF314FF0FF3027
:1002080000F07AB9ADF1080C6DE904CE00F006F8FB
:10021800DDF804E0DDE9022304B070472DE9F0477A
:100228008C460D460446089E002B51D18A4217463B
:100238006DD9B2FA82FEBEF1000F0BD0CEF1200CC0
:1002480001FA0EF520FA0CFC02FA0EF74CEA050C3E
:1002580000FA0EF44FEA174A250CBCFBFAF81FFA0D
:1002680087F90AFB18CC45EA0C4508FB09F3AB42B1
:100278000AD9ED1908F1FF3280F02381AB4240F230
:100288002081A8F102083D44ED1AA4B2B5FBFAF0AA
:100298000AFB105544EA054400FB09F9A14509D9B0
:1002A800E41900F1FF3380F00A81A14540F207818B
:1002B80002383C44A4EB090440EA08400021002E1F
:1002C80061D024FA0EF4002334607360BDE8F0872F
:1002D8008B4207D9002E54D0002186E82100084619
:1002E800BDE8F087B3FA83F1002940F08E80AB4275
:1002F80002D3824200F2FA80841A65EB03050120DA
:10030800AC46002E3FD086E81010BDE8F08712B941
:100318000127B7FBF2F7B7FA87FEBEF1000F34D119
:10032800EB1B3A0C1FFA87FC0121B3FBF2F8250CF2
:1003380002FB183345EA03450CFB08F3AB4207D927
:10034800ED1908F1FF3002D2AB4200F2D1808046AD
:10035800ED1AA3B2B5FBF2F002FB105543EA0544CF
:100368000CFB00FCA44507D9E41900F1FF3302D2C5
:10037800A44500F2B8801846A4EB0C0440EA0840F3
:100388009DE731463046BDE8F087CEF1200405FAF6
:100398000EF307FA0EF720FA04F83A0C25FA04F4DB
:1003A80048EA0308B4FBF2F14FEA184502FB11448E
:1003B8001FFA87FC45EA044501FB0CF3AB4200FA3F
:1003C8000EF409D9ED1901F1FF3080F08A80AB42B3
:1003D80040F2878002393D44EB1A1FFA88F5B3FBD7
:1003E800F2F002FB103345EA034500FB0CF3AB4285
:1003F80007D9ED1900F1FF386FD2AB426DD9023839
:100408003D44EB1A40EA01418FE7C1F1200722FA87
:1004180007F88B4005FA01F448EA030320FA07FEBF
:100428004FEA134CFD404EEA040EB5FBFCF94FEAC7
:100438001E440CFB19551FFA83F844EA054509FBCD
:1004480008F4AC4202FA01F200FA01FA08D9ED18F0
:1004580009F1FF3043D2AC4241D9A9F102091D4448
:100468002D1B1FFA8EFEB5FBFCF00CFB10554EEA57
:10047800054400FB08F8A04507D9E41800F1FF354A
:1004880029D2A04527D902381C4440EA0940A4EBE8
:100498000804A0FB02894C45C6464D4615D312D028
:1004A80056B1BAEB0E0364EB050404FA07F7CB4028
:1004B8001F43CC40376074600021BDE8F0871846C0
:1004C800F8E69046E0E6C245EAD2B8EB020E69EBE0
:1004D80003050138E4E72846D7E7404691E7814617
:1004E800BEE7014678E702383C4445E7084608E796
:1004F800A8F102083D442BE7704700BFDFF834D06D
:10050800002103E00C4B5B58435004310B480C4B63
:1005180042189A42F6D30B4A02E0002342F8043B01
:10052800094B9A42F9D300F0B9FE03F0B7FE00F088
:1005380089FBFEE700800120B84400080000002085
:10054800080000200800002088030020FEE70000C3
:1005580000B583B00E4B9A6C42F001029A649B6C12
:1005680003F001030193019B00221146102000F0C3
:100578000BFF102000F03AFF00221146112000F076
:1005880003FF112000F032FF03B05DF804FB00BF49
:10059800001002402DE9F0418CB04A4BDA6C42F071
:1005A8001002DA64DA6C02F010020192019ADA6C35
:1005B80042F08002DA64DA6C02F080020292029A57
:1005C800DA6C42F00102DA64DA6C02F0010203929A
:1005D800039ADA6C42F00402DA64DA6C02F004027C
:1005E8000492049ADA6C42F00202DA64DA6C02F0DD
:1005F80002020592059ADA6C42F00802DA64DB6CB2
:1006080003F008030693069B2F4F0022502138461B
:1006180001F01BF92D4D00224FF44041284601F00E
:1006280014F95023079301260896002409940A9484
:1006380007A9384601F018F843F204030793DFF8D6
:100648009880CDF820800994A7F5806707A93846D7
:1006580001F00AF880230793CDF82080099407A9B0
:100668001B4801F001F84FF480430793194B089396
:10067800099407A9384600F0F7FF4FF44043079361
:10068800089609940A9407A9284600F0EDFF224627
:100698002146082000F078FE082000F0A7FE224638
:1006A8002146172000F070FE172000F09FFE22461A
:1006B8002146282000F068FE282000F097FE0CB0A4
:1006C800BDE8F0810010024000080048000C004816
:1006D80000100048000031100000111008B515483E
:1006E800154B0360154B4360002383600122C260F1
:1006F800036143618361C361036201F009FA50B980
:1007080000210C4801F0EBFD50B90021094801F027
:1007180014FE50B908BD4521094800F031FAEFE749
:100728004C21074800F02CFAEFE75321044800F069
:1007380027FAEFE77400002000540040EC9C90106A
:10074800504300080268324B9A4200D0704730B5D7
:1007580087B00446C0230193122302930123039315
:1007680003250495042305930DEB0301294800F0A4
:100778007BFF294B9A6D42F400129A659B6D03F436
:1007880000130093009B2548254B03604560102308
:1007980083600023C3608022026143618361C36177
:1007A800036200F05BFE40BB1C4BA3639C621D48C8
:1007B8001D4B03600323436000238360C3608022D2
:1007C800026143618361C361036200F047FEC8B9F7
:1007D800144BE3639C62002211461F2000F0D4FDF5
:1007E8001F2000F003FE00221146202000F0CCFD5F
:1007F800202000F0FBFD07B030BD7D210B4800F044
:10080800BFF9D1E78E21094800F0BAF9E0E700BF47
:100818000054004000040048001002402C00002052
:100828006C000240C00000208000024050430008D5
:1008380000B583B0064A10704FF47A730093012311
:100848004E21044801F0C6F903B05DF804FB00BF6F
:10085800240000207400002038B50001C5B2094CFE
:10086800207840F004002070FFF7E2FF207828434A
:10087800FFF7DEFF207800F0FB002070FFF7D8FFBD
:1008880038BD00BF0801002010B5044669B10B4B04
:10089800187840F001001870FFF7CAFF2009FFF729
:1008A800DBFF2046FFF7D8FF10BD044B187800F097
:1008B800FE001870FFF7BCFFF0E700BF080100203A
:1008C80008B500210120FFF7DFFF4FF47A7000F030
:1008D80039FD08BD10B5642000F034FD002407E0A0
:1008E8000320FFF7B9FF2D2000F02CFD0134E4B2FE
:1008F800022CF5D90220FFF7AFFF642000F022FD9B
:1009080000212820FFF7C0FF012000F01BFD002177
:100918000820FFF7B9FF012000F014FD0021062090
:10092800FFF7B2FF012000F00DFD00210C20FFF7BA
:10093800ABFF012000F006FD074C207840F00800CE
:100948002070FFF775FF207800F0FD002070FFF79A
:100958006FFFFFF7B5FF10BD0801002038B5054649
:10096800002404E00121FFF78FFF0134E4B2285D81
:100978000028F7D138BD08B503292FD8DFE801F0E2
:10098800020B1723002140F08000FFF77DFF0120B4
:1009980000F0D8FC08BD403040B260F07F00002174
:1009A800C0B2FFF771FF012000F0CCFC08BD143085
:1009B80040B260F07F000021C0B2FFF765FF012060
:1009C80000F0C0FC08BD543040B260F07F00002148
:1009D800C0B2FFF759FF012000F0B4FC08BD10B504
:1009E800044608461146FFF7C6FF2046FFF7B6FF44
:1009F80010BD00000268144B9A4200D07047134A99
:100A080013780133DBB21370022B04D00F4B5A78E2
:100A18000D4B5A63F2E7134600221A705B78642B79
:100A28000AD013B901210A4A1170094A12783AB159
:100A38000133064A5370E9E71146054A1170F4E795
:100A4800013B024A5370E1E7000400402500002002
:100A58000000002010B5044601222C4B9A7000219A
:100A68002B4800F0EBFE48B9B4F5005F0CD0B4F5A4
:100A7800805F1DD0B4F5804F2ED010BD00224021DC
:100A8800244800F0E2FEEFE7214C4FF400412046F5
:100A980000F0E0FE4FF40041204600F0CFFE18B110
:100AA80001221A4BDA7010BD0022184BDA7010BD03
:100AB800174C4FF48041204600F0CCFE4FF48041A3
:100AC800204600F0BBFE18B10122104B1A7110BD70
:100AD80000220E4B1A7110BD4FF480410C4800F0F3
:100AE800ADFE0028C9D00B4C4021204600F0B2FED4
:100AF8004021204600F0A2FE18B90022034B5A718B
:100B0800BBE70122014B5A7110BD00BF2500002030
:100B1800000C00480008004838B50D461446012866
:100B280013D0002211461248FFF759FF012D12D0A9
:100B3800012200210E48FFF752FF012C11D002229A
:100B480000210B48FFF74BFF38BD0022114609482A
:100B5800FFF745FFEAE7012200210748FFF73FFFBB
:100B6800EBE7022200210548FFF739FF38BD00BF37
:100B78009843000884430008B0430008C4430008B1
:100B8800FEE7000000B5B9B01023279301222D928B
:100B980000232E9360232F930223319332923392B2
:100BA80028223492072235923693379327A801F0EA
:100BB80009FD78BB0F232293032323930023249357
:100BC80025932693042122A801F0BCFF38BB4323B8
:100BD800019300230F931093159301A802F0EEF9E7
:100BE80010BB4FF4007001F0DDFB10BB02F052F8AF
:100BF800124BA3FB0030800900F004FC042000F035
:100C080017FC002211464FF0FF3000F0BDFB39B051
:100C18005DF804FB40F265110948FFF7B1FF40F2A7
:100C280073110748FFF7ACFF40F27D110448FFF746
:100C3800A7FF4FF4C2710248FFF7A2FFD34D62101D
:100C4800D043000808B500F063FBFFF79BFFFFF7F0
:100C5800A1FCFFF77DFCFFF741FD00F037F800F03D
:100C6800BFF900F013FA00F051FA00F08FFA00F023
:100C7800ADFA134C204602F031FD0021204602F067
:100C88008BFF0421204602F087FF0821204602F04E
:100C980083FF00210B4802F07FFFFFF71BFEFFF7E1
:100CA8000FFE094B9B78DBB2012BFAD1064CE0789A
:100CB80021796279FFF730FF0023A370F1E700BFC5
:100CC80054020020140200202500002008B5114815
:100CD800114B03604FF482734360002383604FF429
:100CE8004072C260036143614FF400728261C36164
:100CF8000362436283620722C26203630823436379
:100D080002F060FB00B908BD47210448FFF738FF2F
:100D1800F9E700BF700100200030014004440008DA
:100D28000268114B9A4200D0704700B587B003F5AE
:100D380060431A6E42F480521A661B6E03F48053A5
:100D48000093009BE0230193022302930023039363
:100D5800032304930523059301A94FF0904000F065
:100D680083FC07B05DF804FB0030014000B583B098
:100D7800214B1A6E42F001021A661A6E02F0010245
:100D88000092009A9A6D42F080529A659B6D03F02A
:100D980080530193019B032000F0E4FA00221146DE
:100DA8006FF00B0000F0F0FA002211466FF00A0015
:100DB80000F0EAFA002211466FF0090000F0E4FAA8
:100DC800002211466FF0040000F0DEFA00221146FE
:100DD8006FF0030000F0D8FA002211466FF001000E
:100DE80000F0D2FA002211464FF0FF3000F0CCFAA2
:100DF80003B05DF804FB00BF001002407047FEE737
:100E0800FEE7FEE7FEE770477047704708B500F059
:100E18008BFA00F01EFB08BD08B5042000F01EFD8B
:100E280008BD000008B5024800F0BCFB08BD00BFC3
:100E38002C00002008B5024800F0B4FB08BD00BF34
:100E4800C000002008B5802000F008FD08BD0000A3
:100E580008B5024802F060FC08BD00BF540200203B
:100E680008B5024802F058FC08BD00BFD4010020B4
:100E780008B5024800F06AFF08BD00BF74000020F2
:100E880008B5024801F0DBF908BD00BF7400002076
:100E980008B54FF4805000F0E1FC4FF4005000F02A
:100EA800DDFC4FF4804000F0D9FC08BD08B50248CD
:100EB80002F032FC08BD00BF1402002000B585B066
:100EC8000368224A934208D0214A934218D0214A03
:100ED800934228D005B05DF804FB1F4B9A6D42F091
:100EE80002029A659B6D03F002030193019B0022A5
:100EF80011461D2000F048FA1D2000F077FAE9E7B6
:100F0800154B9A6D42F004029A659B6D03F0040339
:100F18000293029B002211461E2000F035FA1E2083
:100F280000F064FAD6E70C4B9A6D42F008029A6515
:100F38009B6D03F008030393039B002211463220A4
:100F480000F022FA322000F051FAC3E70004004012
:100F580000080040000C00400010024000B587B0B7
:100F680003681A4A934208D0194A934212D0194A80
:100F780093421DD007B05DF804FB38230193022388
:100F88000293002203920492059301A9124800F0EB
:100F98006BFBEFE74FF48053019302230293002287
:100FA80003920492059301A90C4800F05DFBE1E768
:100FB80001230193022302930022039204920593D2
:100FC80001A94FF0904000F04FFBD3E70004004028
:100FD80000080040000C004000100048000C0048C9
:100FE80000B58BB02648274B036041F63F7343603A
:100FF800002383606322C2600361836102F0BEFC48
:1010080020BB00230793099307A91D4802F004FE9B
:1010180008BB602300930022019202920492694661
:10102800174802F00DFDD8B904226946144802F0A9
:1010380007FDD0B908226946114802F001FDC8B978
:101048000F48FFF78BFF0BB05DF804FB41210E48FA
:10105800FFF796FDD5E748210B48FFF791FDD8E744
:1010680051210948FFF78CFDDEE756210648FFF7B6
:1010780087FDDFE75B210448FFF782FDE0E700BF5B
:1010880054020020000400403844000800B58BB02A
:101098001B481C4B036041F63F7343600023836089
:1010A8006322C2600361836102F068FCC0B9002357
:1010B8000793099307A9124802F0AEFDA8B9602367
:1010C8000093002201920292049269460C4802F0B1
:1010D800B7FC78B90A48FFF741FF0BB05DF804FB8D
:1010E8006F210948FFF74CFDE1E776210648FFF735
:1010F80047FDE4E77F210448FFF742FDEAE700BF28
:10110800D4010020000800403844000800B58BB026
:101118001B481C4B036041F63F7343600023836008
:101128006322C2600361836102F028FCC0B9002316
:101138000793099307A9124802F06EFDA8B9602326
:101148000093002201920292049269460C4802F030
:1011580077FC78B90A48FFF701FF0BB05DF804FB8C
:1011680093210948FFF70CFDE1E79A210648FFF7AC
:1011780007FDE4E7A3210448FFF702FDEAE700BF03
:1011880014020020000C00403844000808B50C4840
:101198000C4B03604FF4E133436000238360C3606A
:1011A80003610C2242618361C3610362436203F0FD
:1011B80040F800B908BD45210348FFF7E1FCF9E70D
:1011C80094020020003801406C44000808B50C481F
:1011D8000C4B03604FF4E133436000238360C3602A
:1011E80003610C2242618361C3610362436203F0BD
:1011F80020F800B908BD5A210348FFF7C1FCF9E7F8
:101208000C030020004400406C44000800B589B07D
:1012180003681F4A934205D01E4A93421DD009B065
:101228005DF804FB1C4B1A6E42F480421A661B6E72
:1012380003F480430193019B4FF4C063039302239B
:10124800049300230593032306930723079303A915
:101258004FF0904000F008FAE1E70F4B9A6D42F426
:1012680000329A659B6D03F400330293029B0C23B2
:101278000393022304930023059303230693072370
:10128800079303A94FF0904000F0EEF9C7E700BFBD
:101298000038014000440040001002400F49D1F8D6
:1012A800883043F47003C1F888300D4B1A6842F057
:1012B80001021A60002098601A6822F0A85222F4ED
:1012C80010221A604FF48052DA601A6822F48022E1
:1012D8001A6098614FF000638B60704700ED00E082
:1012E8000010024010B50446074B1868074BA3FBD3
:1012F8000030800900F086F8002221464FF0FF30C8
:1013080000F042F8002010BD04000020D34D621008
:1013180008B5032000F026F80020FFF7E3FFFFF7E9
:1013280025FD002008BD0000024A13680133136040
:10133800704700BF84030020014B1868704700BF46
:101348008403002038B50446FFF7F6FF0546B4F1DC
:10135800FF3F00D00134FFF7EFFF401B8442FAD86B
:1013680038BD0000074AD36823F4E0631B041B0C54
:10137800000200F4E060184340F0BF6040F4003021
:10138800D060704700ED00E030B4164BDB68C3F363
:101398000223C3F10704042C28BF04241D1D062DB5
:1013A80017D9033B012505FA04F4013C2140994073
:1013B80005FA03F3013B1340194300280BDB09012D
:1013C800C9B200F1604000F5614080F8001330BCFC
:1013D80070470023E6E700F00F000901C9B2024B8D
:1013E8001954F4E700ED00E014ED00E0420900F0C4
:1013F8001F00012303FA00F0014B43F82200704755
:1014080000E100E00138B0F1807F0AD2064B586055
:10141800F021064A82F823100020986007221A60FB
:1014280070470120704700BF10E000E000ED00E0C9
:10143800042805D0054A136823F004031360704795
:10144800024A136843F004031360704710E000E099
:10145800704708B5FFF7FCFF08BD0000002869D0F9
:1014680010B403460168344A914245D8334A0A44C5
:101478003349A1FB0212120992004264314A026404
:10148800022283F825201868016821F4FF4121F021
:1014980070019A68DC6822431C6922435C69224314
:1014A8009C692243DC6922431C6A22430A43026086
:1014B8009A68B2F5804F15D0196C224A914226D00D
:1014C800214A1168586C00F01C040F20A04021EA42
:1014D80000011160116858685C6C04F01C04A0409D
:1014E800014311600020D863012283F8252083F886
:1014F80024005DF8044B7047144A0A441049A1FBC4
:101508000212120992004264114A0264B8E7A83232
:101518001168586C00F01C040F20A04021EA00015B
:101528001160116858685C6C04F01C04A040014309
:101538001160D7E70120704707040240F8FFFDBF9C
:10154800CDCCCCCC00000240A8040240F8FBFDBF83
:101558000004024008B590F82530DBB2022B03D016
:101568000423C363012008BD0268136823F00E0337
:1015780013600268136823F001031360016C436C65
:1015880003F01C03012202FA03F34B6080F82520C4
:10159800002380F82430836B13B19847002008BDDE
:1015A800002008BD38B5036C196804682568436CC9
:1015B80003F01C0304229A40114216D015F0040FC0
:1015C80013D0236813F0200F03D1236823F00403FA
:1015D8002360016C436C03F01C02042393404B60AE
:1015E800036B002B3ED0984738BD02229A40114227
:1015F8001BD015F0020F18D0236813F0200F06D166
:10160800236823F00A032360012380F82530016C46
:10161800436C03F01C02022393404B60002380F8C4
:101628002430C36AF3B1984738BD082202FA03F39D
:10163800194217D015F0080F14D0236823F00E03B1
:101648002360016C436C03F01C03012202FA03F3CC
:101658004B60C26380F82520002380F82430436B58
:1016680003B1984738BD0000F0B583B000239AE075
:101678004FEAD30E0EF1080E50F82E4003F007067D
:10168800B6000F27B74024EA07040F6907FA06F6E1
:10169800344340F82E4095E086682640CF6807FA24
:1016A8000EF73E438660466826EA05064F68C7F38C
:1016B80000179F403E4346604E6806F00307032F1D
:1016C80000F09B80C5682C408D6805FA0EF52C4308
:1016D800C4604C6814F0805F64D0544C256E45F0AB
:1016E80001052566246E04F001040194019C9C0800
:1016F800A61C4F4D55F8265003F00306B7000F26D9
:10170800BE4025EA0605B0F1904F00F08180494EB1
:10171800B0427FD006F58066B0427DD006F580667F
:10172800B0427BD006F58066B04279D006F5806677
:10173800B04277D006F58066B04267D00726BE4033
:10174800354302343A4E46F824503B4C2568D4437E
:1017580005EA04064F6817F4803F01D042EA0506FF
:10176800354D2E606D6804EA05064F6817F4003F92
:1017780001D042EA0506304D6E60AD6804EA050600
:101788004F6817F4801F01D042EA05062A4DAE6063
:10179800ED682C404E6816F4001F01D042EA05049B
:1017A800254AD46001330A6832FA03F43CD0012593
:1017B8009D402A40F6D04C68022C3FF459AF122CB9
:1017C8003FF456AF06684FEA430E032404FA0EF4BA
:1017D800E44326404F6807F0030707FA0EF73E4335
:1017E80006604E68771E012F7FF656AF112E3FF424
:1017F80053AF122E7FF460AF4EE7C76A27EA05059C
:10180800C6F3C0069E402E43C6625BE7062696E7EF
:10181800002694E7012692E7022690E703268EE742
:1018280004268CE705268AE703B0F0BD00100240C5
:101838000000014000040048000401400369194207
:1018480001D100207047012070470AB981627047B2
:1018580081617047436959404161704708B5054B3C
:101868005B69034200D108BD024B5861FFF7F2F8EB
:10187800F9E700BF0004014003689A6912F0020FFB
:1018880001D000229A6203689A6912F0010F03D10D
:101898009A6942F001029A61704770B4039D066824
:1018A80070686C0D04F4806444F07F7444F4583418
:1018B80044F47F7444F0030420EA0400C1F30901EE
:1018C80041EA0241194329430843706070BC7047DC
:1018D80011F0010F09D090F8413003F02803282BAC
:1018E80001D0F22302E0422300E0002311F0020FAE
:1018F8002CD010B443F0440490F8412002F02802A0
:10190800282A18D043F0F40311F0040F01D043F053
:10191800B80301F01102112A0FD001F012011229A7
:101928000ED012290FD001680A6822EA03030B605F
:101938005DF8044B70472346E6E743F09003ECE775
:1019480043F02003EDE743F04003ECE711F0040F08
:1019580001D043F0B80301F01102112A0BD001F0B5
:10196800120112290AD012290BD001680A6822EA4A
:1019780003030B60704743F09003F0E743F0200344
:10198800F1E743F04003F0E770B504460D4616460C
:1019980003689B6913F0100F1CD023689A6912F032
:1019A800200F19D1B5F1FF3FF7D0FFF7C5FC801B19
:1019B800854201D3002DF0D1636C43F020036364AA
:1019C800202384F84130002384F8423084F84030E2
:1019D800012070BD002070BD1022DA612368202527
:1019E800DD612046FFF748FF2268536823F0FF7344
:1019F80023F48B3323F4FF7323F001035360636CE8
:101A080043F00403636484F84150002384F84230AF
:101A180084F84030012070BD70B504460D46164666
:101A280023689B6913F0020F1DD1324629462046D0
:101A3800FFF7AAFFC8B9B5F1FF3FF1D0FFF77CFC6B
:101A4800801B854201D3002DEAD1636C43F020034B
:101A58006364202384F84130002384F8423084F8FA
:101A68004030012070BD002070BD012070BDF8B568
:101A780005460F4616461C462B689B6937EA030342
:101A88000CBF01230023B34218D1B4F1FF3FF3D0B8
:101A9800FFF752FC069BC01A844201D3002CEBD1FD
:101AA8006B6C43F020036B64202385F841300023DE
:101AB80085F8423085F840300120F8BD0020F8BD97
:101AC80070B505460C4616462B689B6913F0200F27
:101AD8001AD1324621462846FFF756FFB0B9FFF71C
:101AE8002BFC801B844201D3002CEDD16B6C43F09E
:101AF80020036B64202385F84130002385F84230A9
:101B080085F84030012070BD002070BD012070BDF7
:101B180010B50446002847D090F84130002B48D033
:101B2800242384F841302268136823F001031360EA
:101B38002268636823F0706313612268936823F452
:101B480000439360E368012B38D02268A36843F40C
:101B580004439360E368022B36D02268536843F04D
:101B6800007343F4004353602268D36823F40043AE
:101B7800D3602268236961690B43A16943EA0123A1
:101B8800D3602268E369216A0B43136022681368F3
:101B980043F00103136000206064202384F841307F
:101BA800206384F8420010BD4FF4007343640120A1
:101BB80010BD80F84030FEF7C5FDB1E72268A36884
:101BC80043F400439360C5E723684FF400625A600A
:101BD800C3E700002DE9F04383B090F84150EDB21F
:101BE800202D04D00223184603B0BDE8F08390F8F6
:101BF8004040012C01D10223F5E7984617460D46CF
:101C080004464FF0010980F84090FFF795FB06461F
:101C1800009019234A464FF400412046FFF727FF5A
:101C2800002840F08880212384F84130102384F86C
:101C38004230002363646762A4F82A806363638D7B
:101C48009BB2FF2B0AD9FF2222853F4B00934FF00E
:101C5800807329462046FFF720FE18E0628D92B275
:101C68002285394B00934FF00073D2B229462046A3
:101C7800FFF713FE0BE0628D92B2228500230093DA
:101C88004FF00073D2B229462046FFF706FE638D57
:101C98009BB2002B32D032460A992046FFF7BCFE91
:101CA80000284AD12268636A591C61621B789362D2
:101CB800638D9BB2013B9BB26385238D013B9BB235
:101CC8002385628D92B2002AE1D0002BDFD10096E5
:101CD8000A9B002280212046FFF7C9FE78BB638D4E
:101CE8009BB2FF2BC7D9FF222285002300934FF018
:101CF800807329462046FFF7D0FDC8E732460A9987
:101D08002046FFF7DDFE0346D8B922682021D161BD
:101D18002068426822F0FF7222F48B3222F4FF72AC
:101D280022F00102426084F84110002284F8422027
:101D380084F8402057E7012355E7012353E701239F
:101D480051E701234FE700BF0020008008B5036872
:101D580099691A68436B03B1984708BD7047704783
:101D680010B50446002380F8423090F84130DBB2C9
:101D7800292B05D090F84130DBB22A2B0FD010BDAB
:101D8800282380F84130212303630121FFF7A0FDB8
:101D9800002384F840302046FFF7E0FF10BD2823D9
:101DA80080F84130222303630221FFF791FD0023CD
:101DB80084F840302046FFF7D2FFE0E77047F8B5D7
:101DC80090F8413003F02803282B06D00368082236
:101DD800DA61002380F84030F8BD044603689E6944
:101DE800C6F300469A69120C02F0FE059A68C2F31F
:101DF8000902DF6807F0FE07C168022921D185EAD8
:101E0800D21515F0060F10D1816C01318164816CF7
:101E18000229E1D1002181640820D86184F84010AA
:101E280031462046FFF7CAFFF8BD0421FFF750FDF1
:101E3800002384F840303A4631462046FFF7BEFF7B
:101E4800F8BD0421FFF744FD002384F840302A46FA
:101E580031462046FFF7B2FFF8BD704710B504467B
:101E6800164BC36200230363202280F8412080F8C8
:101E78004230436311F0040F12D0436A5A1C426285
:101E88000268526A1A70038D53B1013B0385438D72
:101E98009BB2013B9BB24385436C43F0040343640C
:101EA80007212046FFF714FD23681022DA6100237A
:101EB80084F840302046FFF7D0FF10BD0000FFFF38
:101EC8007047704710B50446002380F842303B4AFB
:101ED800C2624385436C1943416490F84130DBB2D8
:101EE800282B18D090F84130DBB2292B13D090F86A
:101EF8004130DBB22A2B0ED00721FFF7E9FC94F81A
:101F08004130DBB2602B02D0202384F8413000231B
:101F1800236363630AE003212046FFF7D9FC2823E3
:101F280084F8413000232363254B636323681A68D0
:101F380012F4804F13D01A6822F480421A60A36BFF
:101F480043B1204A9A63002384F84030A06BFFF71E
:101F580001FB00B910BDA06B836B984710BD1A68D0
:101F680012F4004F14D01A6822F400421A60E36B8E
:101F7800002BEFD0134A9A63002384F84030E06BBB
:101F8800FFF7E8FA0028E5D0E06B836B984710BDAF
:101F980094F84130DBB2602B06D0002384F840303F
:101FA8002046FFF78DFFD5E7202384F84130002332
:101FB80084F840302046FFF784FF10BD0000FFFF83
:101FC800F9200008B322000838B504460D46036816
:101FD8002022DA6103680822DA610721FFF778FC1A
:101FE8002268536843F4004353602268536823F01F
:101FF800FF7323F48B3323F4FF7323F0010353603F
:102008002046FFF739FC23681A6812F4804F03D181
:102018001A6812F4004F0BD0E26B002A3AD0196804
:1020280011F4804F3AD0A26B1268526892B262855E
:1020380015F0040F0DD0626A511C61625B6A13705F
:10204800238D33B1013B2385638D9BB2013B9BB24A
:102058006385638D9BB21BB1636C43F004036364B7
:102068000023236384F842306363636CD3B9E36A63
:1020780013F5803F24D194F84130DBB2222B2BD0CA
:10208800202384F84130002384F840302046FFF7AD
:1020980065FE38BDA16B0029C1D1C9E71268526835
:1020A80092B2C4E7616C2046FFF70CFF94F8413008
:1020B800DBB2282BEDD129462046FFF7CFFE38BDED
:1020C8000A4BE362202384F84130002384F840302F
:1020D8002046FFF7C2FE38BD202384F84130002394
:1020E80084F840302046FFF73AFE38BD0000FFFF75
:1020F80090F84030012B00F0A08070B516460D46D0
:102108000446012380F8403011F0100F3FD012F040
:10211800100F3CD0438D9BB243BBC36AB3F1007F21
:1021280010D0C36AB3F1007F0CD0E36A13F5803F87
:1021380004D094F84130DBB2292B0DD0236810224B
:10214800DA611AE094F84130DBB2282BEDD1294648
:102158002046FFF783FE10E023681022DA6120464C
:10216800FFF78AFB2046FFF7FBFD06E00368102215
:10217800DA61436C43F00403436415F0200F02D086
:1021880016F0200F54D1002084F8400070BD15F0DF
:10219800040F1FD016F0040F1CD0638D9BB26BB1D7
:1021A800636A5A1C62622268526A1A70238D013B64
:1021B8002385638D9BB2013B9BB26385638D9BB284
:1021C800002BDAD1E36A13F5803FD6D02046FFF71B
:1021D800C7FDD2E715F0080F02D016F0080F17D187
:1021E80015F0020FC9D016F0020FC6D0638D9BB24E
:1021F8009BB12268636A591C61621B789362638D84
:102208009BB2013B9BB26385238D013B2385B4E7D9
:1022180029462046FFF7D3FDAFE7E36AB3F1807F95
:1022280002D0E36A002BA8D12046FFF799FDA4E766
:1022380029462046FFF7C8FEA5E70220704710B5DB
:1022480002689369116813F4807F09D011F0800F38
:1022580006D0446C44F0010444644FF48074D461A3
:1022680013F4806F0AD011F0800F07D0426C42F04F
:102278000802426402684FF48064D46113F4007F5A
:102288000AD011F0800F07D0436C43F00203436477
:1022980003684FF40072DA61436C13F00B0F00D13E
:1022A80010BD416CFFF70EFEFAE708B5806A0268B8
:1022B800536843F400435360826B00239363C26BFB
:1022C800936390F84130DBB2602B02D0FFF7F8FD42
:1022D80008BD202380F84130FFF7F3FD08BD90F8D2
:1022E8004130DBB2202B01D00220704790F84030FB
:1022F800012B20D0012380F84030242380F841307E
:102308000268136823F0010313600268136823F45A
:1023180080531360026813681943116002681368D8
:1023280043F001031360202380F84130002380F834
:102338004030184670470220704790F84130DBB2B1
:10234800202B01D00220704790F84030012B1ED07E
:10235800012380F84030242380F841300268136854
:1023680023F0010313600268136823F4706343EADF
:10237800012111600268136843F0010313602023F0
:1023880080F84130002380F840301846704702201A
:1023980070470000024B186800F4C060704700BF27
:1023A80000700040B0F5007F0FD0204B1B6803F48D
:1023B800C063B3F5806F37D01C4A136823F4C06339
:1023C80043F48063136000207047184B1B6803F4C4
:1023D800C063B3F5007F23D0144A136823F4C063A5
:1023E80043F400731360124B1B6802F1467202F546
:1023F8005B3202F28322A2FB03239A0C322303FBF3
:1024080002F300E0013B23B1084A526912F4806FDD
:10241800F8D1064B5B6913F4806F03D00320704733
:10242800002070470020704700207047007000406F
:102438000400002030B583B00546204B9B6D13F097
:10244800805F0BD0FFF7A6FFB0F5007F17D0802D77
:102458001FD82DD0702D2DD000211BE0174CA36D57
:1024680043F08053A365A36D03F080530193019B50
:10247800FFF790FFA36D23F08053A365E4E7802D59
:1024880003D9A02D03D9022104E0002102E0012193
:1024980000E003210A4A136823F007030B43136083
:1024A800136803F00703994206D0012003B030BD3A
:1024B8000221EFE70121EDE70020F7E700100240D5
:1024C800002002403B4B9B6813F00C0F1AD0394B8D
:1024D8009B6803F00C030C2B0ED0364B9B6803F063
:1024E8000C03042B2FD0334B9B6803F00C03082BF1
:1024F8002CD00020014618E02E4BDB6803F00303C4
:10250800012BEAD12B4B1B6813F0080F14D1294B70
:10251800D3F89430C3F30323274A52F82310254BEA
:102528009B6813F00C0F0CD00020224A936803F02C
:102538000C030C2B0DD070471E4B1B68C3F3031301
:10254800EAE70846F1E71D480021EEE71C480021AC
:10255800EBE71346D26802F00302DB68C3F3021309
:102568000133022A0AD0032A1AD0B1FBF3F3114A25
:10257800D068C0F3062000FB03F008E00F48B0FB6A
:10258800F3F30C4AD068C0F3062000FB03F0094BB4
:10259800DB68C3F3416301335B00B0FBF3F0CAE7C8
:1025A8000748B0FBF3F3034AD068C0F3062000FBEA
:1025B80003F0ECE700100240084300080024F40090
:1025C80000127A00002800F0A88270B582B0044694
:1025D800036813F0100F3FD0974B9B6813F00C0F54
:1025E80040F09280944B1B6813F0020F03D083696C
:1025F800002B00F09982206A8F4B1B6813F0080F9C
:1026080062D08D4B1B6803F0F003834263D2FFF75F
:1026180011FF002840F08A82874B1A6842F00802AE
:102628001A601A6822F0F002216A0A431A605A688E
:1026380022F47F42E16942EA01225A60FFF742FF31
:102648007D4B9B68C3F303137C4AD35CD8407C4B17
:1026580018600020FEF746FE236813F0010F00F013
:10266800A180754B9B6803F00C03082B00F0918048
:10267800714B9B6803F00C030C2B00F0838063689C
:10268800B3F5803F00F0B580B3F5A02F00F0B78018
:10269800694B1A6822F480321A601A6822F4802280
:1026A8001A606368002B00F0B780FEF745FE054608
:1026B800614B1B6813F4003F74D1FEF73DFE401BCD
:1026C8006428F5D9032038E25B4BD3F894301B0912
:1026D80003F0F00399E7584B1A6842F008021A60B1
:1026E8001A6822F0F002216A0A431A605A6822F432
:1026F8007F42E16942EA01225A60206AFFF79AFEA6
:1027080000289BD0012018E2836933B34A4A136832
:1027180043F001031360FEF70FFE0546464B1B68A6
:1027280013F0020F06D1FEF707FE401B0228F5D969
:10273800032002E2404B1A6842F008021A601A6845
:1027480022F0F002216A0A431A605A6822F47F4292
:10275800E16942EA01225A607EE7374A136823F0AA
:1027680001031360FEF7E8FD0546334B1B6813F0C1
:10277800020F3FF471AFFEF7DFFD401B0228F4D9CA
:102788000320DAE12C4BDB6803F00303032B7FF40F
:1027980076AF294B1B6813F4003F03D06368002B06
:1027A80000F0C681236813F0020F62D0224B9B68A9
:1027B80003F00C03042B4BD01F4B9B6803F00C0356
:1027C8000C2B3FD0E368002B79D01B4A136843F4E5
:1027D80080731360FEF7B0FD0546174B1B6813F4B2
:1027E800806F63D1FEF7A8FD401B0228F5D90320AE
:1027F800A3E1114A136843F48033136051E703F1EE
:102808008043A3F53C331A6842F480221A601A68A0
:1028180042F480321A6044E7FEF78EFD0546064B07
:102828001B6813F4003FBDD0FEF786FD401B6428EB
:10283800F5D9032081E100BF0010024038430008A9
:1028480004000020B64BDB6803F00303022BB9D168
:10285800B34B1B6813F4806F03D0E368002B00F0C0
:102868006981AF4A536823F0F853216943EA016349
:102878005360236813F0080F4CD063699BB3A84AD0
:10288800D2F8943043F00103C2F89430FEF754FDB7
:102898000546A34BD3F8943013F0020F3AD1FEF754
:1028A8004BFD401B0228F4D9032046E19C4A53689B
:1028B80023F0F853216943EA01635360D9E7984A42
:1028C800136823F480731360FEF736FD0546944BB6
:1028D8001B6813F4806FCCD0FEF72EFD401B022836
:1028E800F5D9032029E18E4AD2F8943023F0010368
:1028F800C2F89430FEF720FD0546894BD3F8943092
:1029080013F0020F06D0FEF717FD401B0228F4D97A
:10291800032012E1236813F0040F7BD0804B9B6DDA
:1029280013F0805F36D17E4B9A6D42F080529A65E3
:102938009B6D03F080530193019B0125794B1B6824
:1029480013F4807F28D0A368012B39D0052B3FD002
:10295800734BD3F8902022F00102C3F89020D3F8EB
:10296800902022F00402C3F89020A368002B3DD0E9
:10297800FEF7E2FC06466A4BD3F8903013F0020FDC
:1029880046D1FEF7D9FC801B41F288339842F2D930
:102998000320D2E00025D1E7624A136843F480732C
:1029A8001360FEF7C9FC06465E4B1B6813F4807F74
:1029B800C9D1FEF7C1FC801B0228F5D90320BCE071
:1029C800574AD2F8903043F00103C2F89030CCE770
:1029D800534BD3F8902042F00402C3F89020D3F868
:1029E800902042F00102C3F89020BEE7FEF7A4FC55
:1029F80006464B4BD3F8903013F0020F08D0FEF781
:102A08009BFC801B41F288339842F2D9032094E062
:102A1800002D35D1A36A002B00F08E80404A9268C1
:102A280002F00C020C2A00F08A80022B2ED03C4BBC
:102A38001A6822F080721A601B6813F0006F09D1BF
:102A4800374B1B6813F0005F04D1354AD36823F075
:102A58000303D360324AD36823F0887323F48033A6
:102A6800D360FEF769FC04462D4B1B6813F0007F0A
:102A780051D0FEF761FC001B0228F5D903205CE069
:102A8800274A936D23F080539365C3E7244A13685C
:102A980023F080731360FEF74FFC0546204B1B683C
:102AA80013F0007F06D0FEF747FC401B0228F5D93B
:102AB800032042E0236B5A1E636B1B0243EA021396
:102AC800A26B120943EA4243E26A1343E26B5208DB
:102AD800013A43EA4253226C5208013A43EA4263FC
:102AE8000F4AD360136843F080731360D36843F0D0
:102AF8008073D360FEF720FC0446094B1B6813F073
:102B0800007F06D1FEF718FC001B0228F5D9032028
:102B180013E0002011E000200FE00120704700BF03
:102B28000010024000700040012006E0012004E08F
:102B3800012002E0012000E0002002B070BD012069
:102B4800FBE700BF002800F0998070B504464D4BA4
:102B58001B6803F007038B420CD24A4A136823F020
:102B680007030B431360136803F00703994201D06E
:102B7800012070BD0D46236813F0010F39D063683A
:102B8800032B09D0022B26D063BB3F4A126812F0F0
:102B9800020F06D1012070BD3B4A126812F0007F77
:102BA8006ED039498A6822F0030213438B60FEF71E
:102BB800C3FB0646344B9B6803F00C036268B3EB17
:102BC800820F16D0FEF7B8FB801B41F2883398427B
:102BD800F0D9032070BD2C4A126812F4003FE0D1EE
:102BE800012070BD284A126812F4806FD9D10120E3
:102BF80070BD236813F0020F06D0234A936823F0B0
:102C0800F003A1680B4393601E4B1B6803F0070396
:102C18009D420CD21B4A136823F007032B43136011
:102C2800136803F007039D4201D0012070BD23689B
:102C380013F0040F06D0144A936823F4E063E168A4
:102C48000B439360236813F0080F07D00E4A93686C
:102C580023F46053216943EAC1039360FFF732FC10
:102C6800094B9B68C3F30313084AD35CD840084B4D
:102C780018600020FEF736FB002070BD0120704769
:102C8800012070BD002002400010024038430008B7
:102C980004000020014B1868704700BF04000020A2
:102CA80008B5FFF7F7FF044B9B68C3F30223034AF9
:102CB800D35CD84008BD00BF00100240484300085C
:102CC80008B5FFF7E7FF044B9B68C3F3C223034A29
:102CD800D35CD84008BD00BF00100240484300083C
:102CE800F8B55E4BDB6813F0030F19D05B4BDB685C
:102CF80003F003030268934204D00124002C48D057
:102D08002046F8BD002A42D0544BDB68C3F30213B7
:102D180001334268934201D00124EFE70024EDE734
:102D28000368022B18D0032B1DD0012B0DD00124D2
:102D3800002CE3D1494EF26822F073024568013D48
:102D480043EA05131343F360D8E7444A126812F0C4
:102D5800020F14D00024EBE7404A126812F4806F87
:102D68000FD00024E4E73D4A126812F4003F0AD16C
:102D78003A4A126812F4802F07D00024D8E70124B9
:102D8800D6E70124D4E70024D2E70124D0E70124C0
:102D9800B4E70F460546314A136823F08063136091
:102DA800FEF7CAFA06462D4B1B6813F0006F05D0D4
:102DB800FEF7C2FA801B0228F5D90324002C9FD104
:102DC8004FBB26490B6923F41F3323F44073A868CB
:102DD800EA681209520442EA002213430B611F4AAF
:102DE800136843F080631360FEF7A6FA06461B4B90
:102DF8001B6813F0006F05D1FEF79EFA801B0228AE
:102E0800F5D90324002C7FF47BAF144A1369A96910
:102E18000B43136174E7012F0FD01048026922F0A9
:102E2800C06222F4FE42A9686B695B08013B5B063D
:102E380043EA012313430361D1E70848026922F4F6
:102E4800C00222F4FE42A9682B695B08013B5B05BE
:102E580043EA012313430361C1E700BF00100240A6
:102E6800F8B5554BDB6813F0030F19D0524BDB68EC
:102E780003F003030268934204D00124002C48D0D5
:102E88002046F8BD002A42D04B4BDB68C3F302133F
:102E980001334268934201D00124EFE70024EDE7B3
:102EA8000368022B18D0032B1DD0012B0DD0012451
:102EB800002CE3D1404EF26822F073024568013DD0
:102EC80043EA05131343F360D8E73B4A126812F04C
:102ED800020F14D00024EBE7374A126812F4806F0F
:102EE8000FD00024E4E7344A126812F4003F0AD1F4
:102EF800314A126812F4802F07D00024D8E7012441
:102F0800D6E70124D4E70024D2E70124D0E701243E
:102F1800B4E70F460546284A136823F08053136028
:102F2800FEF70AFA0646244B1B6813F0005F05D02B
:102F3800FEF702FA801B0228F5D90324002C9FD142
:102F48004FBB1D494B6923F41F3323F44073A86812
:102F5800EA681209520442EA002213434B61164AF6
:102F6800136843F080531360FEF7E6F90646124BE8
:102F78001B6813F0005F05D1FEF7DEF9801B0228FD
:102F8800F5D90324002C7FF47BAF0B4A5369696998
:102F98000B43536174E70848426922F0C06222F487
:102FA800FE42A9682B695B08013B5B0643EA0123E3
:102FB80013434361D3E700BF001002402DE9F041FD
:102FC80082B00446036813F4006F2FD0436EB3F544
:102FD800800F23D014D9B3F5000F18D0B3F5400FE4
:102FE80022D10026002E40F09680624AD2F888301E
:102FF80023F44003616E0B43C2F88830374617E06C
:1030080093B900210430FFF76BFE0646EAE7594AF8
:10301800D36843F48033D3600026E3E700212030EF
:10302800FFF71EFF0646DDE70126DBE700273E46E1
:10303800236813F4805F15D0A36EB3F1807F79D035
:103048006BD9B3F1007F6FD0B3F1407F79D1002EF7
:1030580079D1484AD2F8883023F04073A16E0B43E7
:10306800C2F88830236813F4003F00F08C80414B8D
:103078009B6D13F0805F68D13E4B9A6D42F0805291
:103088009A659B6D03F080530193019B4FF00108F3
:10309800394A136843F480731360FEF74DF9054607
:1030A800354B1B6813F4807F05D1FEF745F9401BAB
:1030B8000228F5D90326002E60D12E4BD3F8903084
:1030C80013F4407316D0D4F88020934212D0294AC2
:1030D800D2F8903023F44073D2F8901041F4803144
:1030E800C2F89010D2F8901021F48031C2F89010F4
:1030F800C2F8903013F0010F2AD1002E40F02C8135
:103108001C4AD2F8903023F44073D4F880100B4353
:10311800C2F8903033E037468AE793B90021201D82
:10312800FFF7DEFD064692E7124AD36843F4803380
:10313800D3608CE7002104F12000FFF791FE0646DA
:1031480085E7012683E737468CE74FF000089FE7BD
:10315800FEF7F2F80546074BD3F8903013F0020F4C
:10316800CBD1FEF7E9F8401B41F288339842F2D9F7
:103178000326C2E700100240007000403746B8F14D
:10318800000F40F0EB80236813F0010F08D08C4A41
:10319800D2F8883023F00303A16B0B43C2F88830C0
:1031A800236813F0020F08D0854AD2F8883023F03C
:1031B8000C03E16B0B43C2F88830236813F0040F4B
:1031C80008D07F4AD2F8883023F03003216C0B43B3
:1031D800C2F88830236813F0080F08D0784AD2F86C
:1031E800883023F0C003616C0B43C2F88830236831
:1031F80013F0100F08D0724AD2F8883023F44073C5
:10320800A16C0B43C2F88830236813F0200F08D054
:103218006B4AD2F8883023F44063E16C0B43C2F860
:103228008830236813F4007F08D0654AD2F88830C4
:1032380023F44023E16D0B43C2F88830236813F46C
:10324800806F08D05E4AD2F8883023F44013216E8C
:103258000B43C2F88830236813F0400F08D0584A4F
:10326800D2F8883023F44053216D0B43C2F88830DC
:10327800236813F0800F08D0514AD2F8883023F41D
:103288004043616D0B43C2F88830236813F4807F94
:1032980008D04B4AD2F8883023F44033A16D0B4351
:1032A800C2F88830236813F4002F0FD0444AD2F8AC
:1032B800883023F04063E16E0B43C2F88830E36E38
:1032C800B3F1006F50D0B3F1806F52D0236813F47C
:1032D800802F0FD03A4AD2F8883023F04063216F0C
:1032E8000B43C2F88830236FB3F1006F49D0B3F1B4
:1032F800806F4BD0236813F4804F0FD0304AD2F838
:10330800883023F04053616F0B43C2F88830636FF5
:10331800B3F1805F42D0B3F1005F47D0236813F464
:10332800004F08D0264AD2F8883023F08043A16F96
:103338000B43C2F88830236813F4803F08D0204A32
:10334800D2F8883023F00043E16F0B43C2F888308D
:10335800384602B0BDE8F081374610E7184A936D49
:1033680023F0805393650EE7D36843F48013D3604A
:10337800ACE70121201DFFF7B3FC0028A6D00746C3
:10338800A4E7D36843F48013D360B3E70121201D79
:10339800FFF7A6FC0028ADD00746ABE70221201DA9
:1033A800FFF79EFC0028B9D00746B7E7022104F1D1
:1033B8002000FFF755FD0028B0D00746AEE700BF54
:1033C80000100240002853D010B504460023836241
:1033D80090F85D30002B40D0022384F85D302268DD
:1033E800136823F040031360E368B3F5E06F39D93D
:1033F8000021B3F5706F04D0B3F5E06F01D000225F
:10340800A262226B22B9B3F5E06F2ED9022323639F
:1034180022686368A0680343206903436069034323
:10342800A06900F400700343E0690343206A034382
:10343800A06A034313602268638B03F00403606A85
:103448000343606B0343E06803430B43536000206E
:103458002066012384F85D3010BD80F85C30FDF7EC
:103468005FFCB9E74FF48051C3E701232363CFE73B
:103478000120704730B4036A23F001030362036A32
:103488004468826922F4803222F073020D682A436C
:1034980023F002038D682B431C4DA8420FD005F57D
:1034A8000065A8420BD005F54065A84207D005F590
:1034B8008065A84203D005F58065A84205D123F0B0
:1034C8000803CD682B4323F00403104DA8420FD006
:1034D80005F50065A8420BD005F54065A84207D060
:1034E80005F58065A84203D005F58065A84205D199
:1034F80024F440744D692C438D692C4344608261E7
:103508004A684263036230BC704700BF002C014028
:1035180030B4036A23F480730362036A4468C2699F
:1035280022F4803222F073020D682A4323F40073D8
:103538008D6843EA0523184DA84225D005F5006596
:10354800A84221D0144DA8420FD005F50065A84225
:103558000BD005F54065A84207D005F58065A8425F
:1035680003D005F58065A84207D124F440544D697D
:1035780044EA05148D6944EA05144460C2614A6846
:10358800C263036230BC704723F40063CD6843EA2A
:10359800052323F48063D5E7002C014030B4036A87
:1035A80023F480530362036A4468C26922F080727C
:1035B80022F4E6420D6842EA052223F400538D689E
:1035C80043EA05330F4DA8420FD005F50065A84220
:1035D8000BD005F54065A84207D005F58065A842DF
:1035E80003D005F58065A84204D124F480444D69D0
:1035F80044EA85144460C2614A680264036230BCCC
:10360800704700BF002C014030B4036A23F48033B4
:103618000362036A4468426D22F4803222F0700229
:103628000D682A4323F400338D6843EA05430F4DA0
:10363800A8420FD005F50065A8420BD005F54065F6
:10364800A84207D005F58065A84203D005F5806536
:10365800A84204D124F480344D6944EA0524446026
:1036680042654A688265036230BC7047002C01409D
:1036780030B4036A23F480130362036A4468426D1A
:1036880022F0807222F4E0420D6842EA052223F417
:1036980000138D6843EA05530F4DA8420FD005F576
:1036A8000065A8420BD005F54065A84207D005F58E
:1036B8008065A84203D005F58065A84204D124F4AA
:1036C80080244D6944EA8524446042654A68C2659D
:1036D800036230BC704700BF002C01400268D36809
:1036E80043F00103D36003689968084A0A40062A30
:1036F80009D09968054A0A40B2F5803F03D01A6894
:1037080042F001021A600020704700BF0700010064
:10371800704770477047704710B5044603681A69C8
:1037280012F0020F11D0DA6812F0020F0DD06FF00C
:1037380002021A610123037703689B6913F0030FE0
:1037480079D0FFF7E6FF0023237723681A6912F080
:10375800040F12D0DA6812F0040F0ED06FF00402D2
:103768001A610223237723689B6913F4407F68D08A
:103778002046FFF7CEFF0023237723681A6912F04B
:10378800080F12D0DA6812F0080F0ED06FF0080296
:103798001A61042323772368DB6913F0030F57D0DA
:1037A8002046FFF7B6FF0023237723681A6912F033
:1037B800100F12D0DA6812F0100F0ED06FF010024E
:1037C8001A61082323772368DB6913F4407F46D006
:1037D8002046FFF79EFF0023237723681A6912F01B
:1037E800010F03D0DA6812F0010F3FD123681A697C
:1037F80012F0800F03D0DA6812F0800F3DD12368F1
:103808001A6912F4807F03D0DA6812F0800F3BD176
:1038180023681A6912F0400F03D0DA6812F0400FDB
:1038280039D123681A6912F0200F03D0DA6812F030
:10383800200F37D110BDFFF76BFF2046FFF76AFF57
:1038480081E72046FFF764FF2046FFF763FF92E712
:103858002046FFF75DFF2046FFF75CFFA3E7204601
:10386800FFF756FF2046FFF755FFB4E76FF0010258
:103878001A612046FDF7BEF8B8E76FF080021A61BA
:10388800204600F0FCF9BAE76FF480721A6120460E
:1038980000F0F6F9BCE76FF040021A612046FFF726
:1038A8003AFFBEE76FF020021A61204600F0E6F901
:1038B800C0E700000368304A904212D0B0F1804F50
:1038C8000FD0A2F5943290420BD002F5806290425C
:1038D80007D002F58062904203D002F594329042FC
:1038E80003D123F070034A681343234A90421ED041
:1038F800B0F1804F1BD0A2F59432904217D002F558
:103908008062904213D002F5806290420FD002F597
:10391800943290420BD002F54062904207D002F5F3
:103928008062904203D002F58062904203D123F472
:103938004073CA68134323F080034A691343036042
:103948008B68C3620B6883620B4B98420FD003F5F8
:10395800006398420BD003F54063984207D003F503
:103968008063984203D003F58063984201D10B69C4
:103978000363012343617047002C0140A8B110B5CF
:10398800044690F83D305BB1022384F83D30211D98
:103998002068FFF78FFF012384F83D30002010BD19
:1039A80080F83C30FDF78AFAEEE701207047000006
:1039B80030B4036A23F010030362036A446882691F
:1039C80022F0807222F4E6420D6842EA052223F0D2
:1039D80020038D6843EA0513184DA84225D005F544
:1039E8000065A84221D0154DA8420FD005F5006505
:1039F800A8420BD005F54065A84207D005F58065BB
:103A0800A84203D005F58065A84207D124F4406494
:103A18004D6944EA85048D6944EA850444608261FD
:103A28004A688263036230BC704723F08003CD6824
:103A380043EA051323F04003D5E700BF002C0140FB
:103A480038B590F83C30012B00F092800D460446C2
:103A5800012380F83C30022380F83D30142A1ED818
:103A6800DFE802F00B1D1D1D241D1D1D381D1D1D29
:103A78004B1D1D1D5F1D1D1D72000068FFF7FAFC20
:103A88002268936943F0080393612268936923F0DD
:103A9800040393612268936929690B4393610123A5
:103AA80084F83D30002084F83C0038BD0068FFF7FA
:103AB8007FFF2268936943F40063936122689369E6
:103AC80023F48063936122689369296943EA012397
:103AD8009361E4E70068FFF71BFD2268D36943F0B0
:103AE8000803D3612268D36923F00403D3612268F1
:103AF800D36929690B43D361D1E70068FFF74EFD0D
:103B08002268D36943F40063D3612268D36923F43C
:103B18008063D3612268D369296943EA0123D361A9
:103B2800BDE70068FFF770FD2268536D43F0080396
:103B380053652268536D23F0040353652268536D5F
:103B480029690B435365AAE70068FFF791FD2268CE
:103B5800536D43F4006353652268536D23F4806307
:103B680053652268536D296943EA0123536596E733
:103B7800022038BD10B401F01F01012303FA01F43B
:103B8800036A23EA04030362036A8A401343036255
:103B98005DF8044B7047000010B504460122006828
:103BA800FFF7E8FF23681A4A934229D002F500621A
:103BB800934227D002F54062934225D002F58062F5
:103BC800934223D002F58062934217D000221AB1A3
:103BD8005A6C42F400425A64236899680D4A0A40B4
:103BE800062A09D099680B4A0A40B2F5803F03D0EB
:103BF8001A6842F001021A60002010BD0122E6E7AF
:103C08000122E4E70122E2E70122E0E70122DEE700
:103C1800002C01400700010090F83C30012B29D00E
:103C280030B4012380F83C30022380F83D3004682A
:103C38006368A268104DAC4217D005F50065AC4228
:103C480013D023F070030D682B4322F0800289689B
:103C58000A43636003689A60012380F83D300023BB
:103C680080F83C30184630BC704723F470034D6828
:103C78002B43E6E702207047002C0140704770474D
:103C8800704700002DE9784B044601688368026993
:103C9800134342691343C269134308689F4A0240A9
:103CA80013430B602268536823F44053E1680B43C5
:103CB8005360A36922689A498A4201D0216A0B435A
:103CC800916821F430610B4393602368954A9342CD
:103CD80027D0954A934238D0944A93424ED0944A7A
:103CE800934261D0934A934274D08D4A934200F034
:103CF8008A8010258A4A934200F0AA80E369B3F5C6
:103D0800004F00F02C81082D00F2B781DFE815F094
:103D180076018D019701B501A201B501B501B50183
:103D2800AC0102F55842D2F8882002F00302032AB7
:103D380009D8DFE802F0020481060125DAE7042544
:103D4800D8E70825D6E71025D4E702F5E632D2F8F9
:103D5800882002F00C020C2A0ED8DFE802F0070DCA
:103D68000D0D090D0D0D6F0D0D0D0B000025C1E793
:103D78000425BFE70825BDE71025BBE702F5E432B7
:103D8800D2F8882002F03002102A09D005D9202A5A
:103D980056D0302A06D10825ACE71AB90025A9E77C
:103DA8000425A7E71025A5E702F5E232D2F8882016
:103DB80002F0C002402A09D005D9802A42D0C02A80
:103DC80006D1082596E71AB9002593E7042591E757
:103DD80010258FE702F5E032D2F8882002F440720D
:103DE800B2F5807F0BD007D9B2F5007F2CD0B2F5A1
:103DF800407F06D108257DE71AB900257AE7042512
:103E080078E7102576E702F5C832D2F8882002F460
:103E18004062B2F5806F0BD007D9B2F5006F15D0AC
:103E2800B2F5406F06D1082564E71AB9002561E7A5
:103E380004255FE710255DE702255BE7022559E7C2
:103E4800022557E7022555E7022553E7022551E7E2
:103E5800082D11D8DFE805F0081005100C10101017
:103E68001300354800260DE0FEF71AFF002609E08A
:103E7800FEF728FB002605E00020012602E04FF4AB
:103E880000400026002800F0CA80626802EB420366
:103E98009842C0F0F580B0EB023F00F2F380082DA5
:103EA8005AD8DFE805F005591F59295959594F00C3
:103EB800FEF7F6FE00234FEA10694FEA0028626811
:103EC800500818EB000B49F1000C58466146FCF706
:103ED8008DF9A0F54072194B9A4200F2D5802368FB
:103EE800D8609CE05508002315480021401941F18D
:103EF8000001FCF77BF9ECE7FEF7E4FA00234FEA50
:103F080010694FEA00286268500818EB000B49F165
:103F1800000C58466146FCF769F9DAE7F369FFEFE8
:103F28000080004000380140004400400048004044
:103F3800004C0040005000400024F400FFFC0F003B
:103F4800000024F450080021002310F5000041F17E
:103F58000001FCF74BF9BCE701260020B9E7082D62
:103F680049D8DFE805F0051E2948344848483F008D
:103F7800FEF796FE6268530803EB4003B3FBF2F3C7
:103F88009BB20026A3F110014FF6EF7291427DD843
:103F98009AB222F00F02C3F3420313432268D3609C
:103FA8003DE0FEF78DFE6268530803EB4003B3FB68
:103FB800F2F39BB20026E5E76268530803F1F47355
:103FC80003F59043B3FBF2F39BB20026DAE7FEF762
:103FD80079FA6268530803EB4003B3FBF2F39BB230
:103FE8000026CFE76268530803F58033B3FBF2F38A
:103FF8009BB20026C6E701260023C3E7FEF750FE62
:10400800636800EB5300B0FBF3F080B20026A0F128
:1040180010024FF6EF739A423AD82368D86000230B
:10402800236663663046BDE8788BFEF749FE636811
:1040380000EB5300B0FBF3F080B20026E7E76368BB
:10404800580800F5740000F51050B0FBF3F080B28A
:104058000026DCE7FEF736FA636800EB5300B0FB96
:10406800F3F080B20026D2E76368580800F50040F4
:10407800B0FBF3F080B20026C9E701260020C6E7AE
:104088000126CCE70126CAE70126C8E70126C6E7CC
:104098000126C4E7436A13F0010F06D0026853688B
:1040A80023F40033816A0B435360436A13F0020F11
:1040B80006D00268536823F48033C16A0B43536007
:1040C800436A13F0040F06D00268536823F4802370
:1040D800016B0B435360436A13F0080F06D0026864
:1040E800536823F40043416B0B435360436A13F056
:1040F800100F06D00268936823F48053816B0B433A
:104108009360436A13F0200F06D00268936823F483
:104118000053C16B0B439360436A13F0400F0AD0FE
:104128000268536823F48013016C0B435360036CDB
:10413800B3F5801F0BD0436A13F0800F06D00268D6
:10414800536823F40023816C0B4353607047026863
:10415800536823F4C003416C0B435360EBE72DE92C
:10416800F04105460F4616469846069C2B68DB69C3
:1041780037EA03030CBF01230023B3421ED1B4F175
:10418800FF3FF3D02CB1FDF7D7F8A0EB080084422D
:10419800ECD22A68136823F4D07313602A689368F2
:1041A80023F001039360202385F8713085F872307D
:1041B800002385F870300320BDE8F0810020BDE8B9
:1041C800F08130B583B0044600234367FDF7B4F8A7
:1041D800054623681B6813F0080F0ED123681B6877
:1041E80013F0040F17D1202384F8713084F872304B
:1041F800002084F8700003B030BD6FF07E43009358
:10420800034600224FF400112046FFF7A8FF0028BC
:10421800E4D00320EFE76FF07E4300932B460022A3
:104228004FF480012046FFF79AFF0028DBD00320D7
:10423800E1E778B310B5044690F871300BB3242346
:1042480084F871302268136823F001031360204654
:10425800FFF718FD01281FD0636ABBB922685368AD
:1042680023F4904353602268936823F02A039360F1
:104278002268136843F0010313602046FFF7A1FF8B
:1042880010BD80F87030FCF7C1FFD8E72046FFF773
:1042980001FFE3E70120704710BD000070B50D4E27
:1042A8000D4CA41BA4100025A54209D10B4E0C4CA3
:1042B80000F018F8A41BA4100025A54205D170BD74
:1042C80056F8253098470135EEE756F825309847D7
:1042D8000135F2E7A8440008A8440008A8440008EB
:1042E800AC440008F8B500BFF8BC08BC9E4670474F
:1042F800F8B500BFF8BC08BC9E4670470000000037
:10430800A0860100400D0300801A060000350C004D
:1043180040420F0080841E0000093D0000127A0010
:104328000024F40000366E010048E801006CDC024D
:10433800000000000000000001020304060708094D
:104348000000000001020304453A2F437562655FCF
:1043580070726F6A656374732F4C565F7369646516
:104368005F75632F436F6E74726F6C5F75632F5345
:1043780072632F6932632E63000000005452414E6D
:1043880053464F524D4552532053455400000000A8
:104398002020202020202020202020202020202015
:1043A8002020202000000000494E4A454354494F30
:1043B8004E20554E4C4F434B45440000494E4A450C
:1043C8004354494F4E000000453A2F437562655FDC
:1043D80070726F6A656374732F4C565F7369646596
:1043E8005F75632F436F6E74726F6C5F75632F53C5
:1043F80072632F6D61696E2E63000000453A2F438A
:104408007562655F70726F6A656374732F4C565F6F
:10441800736964655F75632F436F6E74726F6C5F49
:1044280075632F5372632F7370692E630000000049
:10443800453A2F437562655F70726F6A656374737E
:104448002F4C565F736964655F75632F436F6E7495
:10445800726F6C5F75632F5372632F74696D2E636F
:1044680000000000453A2F437562655F70726F6AFD
:10447800656374732F4C565F736964655F75632F4A
:10448800436F6E74726F6C5F75632F5372632F7511
:08449800736172742E630000D1
:0844A00084BDFF7F0100000054
:0844A800AD0100080000000056
:0844B000890100080000000072
:0844B8000100000000093D00B5
:0400000508000505E5
:00000001FF
