:020000040800F2
:1000000000800120050500081109000813090008F7
:100010001509000817090008190900080000000068
:100020000000000000000000000000001B090008A4
:100030001D090008000000001F0900082109000830
:100040005505000855050008550500085505000828
:100050005505000855050008550500085505000818
:100060005505000855050008550500085505000808
:1000700055050008550500085505000855050008F8
:1000800055050008550500085505000855050008E8
:1000900055050008550500085505000855050008D8
:1000A00055050008550500085505000855050008C8
:1000B00055050008550500085505000855050008B8
:1000C00055050008550500085505000855050008A8
:1000D0005505000855050008550500085505000898
:1000E0005505000855050008550500085505000888
:1000F0005505000855050008550500085505000878
:100100005505000855050008550500085505000867
:100110005505000855050008550500085505000857
:100120005505000855050008550500085505000847
:100130005505000855050008550500085505000837
:100140005505000855050008550500080000000089
:100150005505000855050008550500085505000817
:100160005505000855050008550500085505000807
:1001700055050008550500080000000000000000BB
:080180005505000855050008B3
:1001880010B5054C237833B9044B13B10448AFF3C9
:1001980000800123237010BD08000020000000002B
:1001A800682E00080C4B43B10C480D4910B5AFF34D
:1001B80000800C48036823B910BD0A48036833B9A6
:1001C8007047094B002BF7D0BDE810401847064B85
:1001D800002BF5D0184700BF00000000682E00086B
:1001E8000C000020080000200000000053B94AB9A4
:1001F800002908BF00281CBF4FF0FF314FF0FF3027
:1002080000F07AB9ADF1080C6DE904CE00F006F8FB
:10021800DDF804E0DDE9022304B070472DE9F0477A
:100228008C460D460446089E002B51D18A4217463B
:100238006DD9B2FA82FEBEF1000F0BD0CEF1200CC0
:1002480001FA0EF520FA0CFC02FA0EF74CEA050C3E
:1002580000FA0EF44FEA174A250CBCFBFAF81FFA0D
:1002680087F90AFB18CC45EA0C4508FB09F3AB42B1
:100278000AD9ED1908F1FF3280F02381AB4240F230
:100288002081A8F102083D44ED1AA4B2B5FBFAF0AA
:100298000AFB105544EA054400FB09F9A14509D9B0
:1002A800E41900F1FF3380F00A81A14540F207818B
:1002B80002383C44A4EB090440EA08400021002E1F
:1002C80061D024FA0EF4002334607360BDE8F0872F
:1002D8008B4207D9002E54D0002186E82100084619
:1002E800BDE8F087B3FA83F1002940F08E80AB4275
:1002F80002D3824200F2FA80841A65EB03050120DA
:10030800AC46002E3FD086E81010BDE8F08712B941
:100318000127B7FBF2F7B7FA87FEBEF1000F34D119
:10032800EB1B3A0C1FFA87FC0121B3FBF2F8250CF2
:1003380002FB183345EA03450CFB08F3AB4207D927
:10034800ED1908F1FF3002D2AB4200F2D1808046AD
:10035800ED1AA3B2B5FBF2F002FB105543EA0544CF
:100368000CFB00FCA44507D9E41900F1FF3302D2C5
:10037800A44500F2B8801846A4EB0C0440EA0840F3
:100388009DE731463046BDE8F087CEF1200405FAF6
:100398000EF307FA0EF720FA04F83A0C25FA04F4DB
:1003A80048EA0308B4FBF2F14FEA184502FB11448E
:1003B8001FFA87FC45EA044501FB0CF3AB4200FA3F
:1003C8000EF409D9ED1901F1FF3080F08A80AB42B3
:1003D80040F2878002393D44EB1A1FFA88F5B3FBD7
:1003E800F2F002FB103345EA034500FB0CF3AB4285
:1003F80007D9ED1900F1FF386FD2AB426DD9023839
:100408003D44EB1A40EA01418FE7C1F1200722FA87
:1004180007F88B4005FA01F448EA030320FA07FEBF
:100428004FEA134CFD404EEA040EB5FBFCF94FEAC7
:100438001E440CFB19551FFA83F844EA054509FBCD
:1004480008F4AC4202FA01F200FA01FA08D9ED18F0
:1004580009F1FF3043D2AC4241D9A9F102091D4448
:100468002D1B1FFA8EFEB5FBFCF00CFB10554EEA57
:10047800054400FB08F8A04507D9E41800F1FF354A
:1004880029D2A04527D902381C4440EA0940A4EBE8
:100498000804A0FB02894C45C6464D4615D312D028
:1004A80056B1BAEB0E0364EB050404FA07F7CB4028
:1004B8001F43CC40376074600021BDE8F0871846C0
:1004C800F8E69046E0E6C245EAD2B8EB020E69EBE0
:1004D80003050138E4E72846D7E7404691E7814617
:1004E800BEE7014678E702383C4445E7084608E796
:1004F800A8F102083D442BE7704700BFDFF834D06D
:10050800002103E00C4B5B58435004310B480C4B63
:1005180042189A42F6D30B4A02E0002342F8043B01
:10052800094B9A42F9D300F0C7FB02F075FC00F0C2
:100538003DF9FEE700800120E82F000800000020B8
:10054800080000200800002088020020FEE70000C4
:10055800F0B58DB0364BDA6C42F01002DA64DA6C22
:1005680002F010020192019ADA6C42F08002DA6419
:10057800DA6C02F080020292029ADA6C42F001020E
:10058800DA64DA6C02F001020392039ADA6C42F040
:100598000402DA64DA6C02F004020492049ADA6C57
:1005A80042F00202DA64DA6C02F002020592059A5D
:1005B800DA6C42F00802DA64DB6C03F00803069395
:1005C800069B1C4F00225021384600F023FD1A4D8F
:1005D80000224FF44041284600F01CFD50230793A9
:1005E80001260896002409940A9407A9384600F0C1
:1005F80027FC47F204030793104F0897099407A9AB
:100608000F4800F01DFC802307930897099407A959
:100618000C4800F015FC4FF44043079308960994E2
:100628000A9407A9284600F00BFC0DB0F0BD00BFE6
:100638000010024000080048000C0048000011109B
:10064800000400480010004808B51648164B03601F
:1006580040F614634360002383600122C260036193
:1006680043618361C361036200F0D9FC50B9002182
:100678000C4800F035FD50B900210A4800F05EFD35
:1006880050B908BD4221094800F03CF8EFE749217C
:10069800064800F037F8EFE75021044800F032F838
:1006A800EFE700BF2400002000540040C82E0008D7
:1006B8000268114B9A4200D0704700B587B0C0233A
:1006C8000193122302930123039303230493042326
:1006D80005930DEB0301094800F0B2FB084B9A6D36
:1006E80042F400129A659B6D03F400130093009B7B
:1006F80007B05DF804FB00BF005400400004004848
:1007080000100240FEE7000000B5B9B0102327939F
:1007180001232D9300232E9360222F92319327A833
:1007280000F050FE68BB0F232293002123912491EF
:100738002591269122A801F005F930BB43230193A6
:1007480000230F931093159301A801F037FB00BB0A
:100758004FF4007000F026FDF8B901F09BF9114B39
:10076800A3FB0030800900F03FFB042000F052FB9F
:10077800002211464FF0FF3000F004FB39B05DF85D
:1007880004FB91210848FFF7BDFF9F210648FFF7AA
:10079800B9FFA9210448FFF7B5FFB0210248FFF7C8
:1007A800B1FF00BFD34D6210FC2E000808B500F061
:1007B800BDFAFFF7A9FFFFF7CBFEFFF745FF00F0F3
:1007C8000BF800F027F900F077F900F0B1F900F024
:1007D800EBF900F009FAFEE708B51148114B036080
:1007E8004FF482734360002383604FF44072C26009
:1007F800036143614FF400728261C3610362436223
:1008080083620722C26203630823436301F0DAFCB0
:1008180000B908BD47210448FFF774FFF9E700BF96
:100828007000002000300140302F00080268114B92
:100838009A4200D0704700B587B003F560431A6E3E
:1008480042F480521A661B6E03F480530093009B97
:10085800E0230193022302930023039303230493C9
:100868000523059301A94FF0904000F0E9FA07B07D
:100878005DF804FB0030014000B583B0214B1A6ECF
:1008880042F001021A661A6E02F001020092009A02
:100898009A6D42F080529A659B6D03F080530193E4
:1008A800019B032000F05CFA002211466FF00B0058
:1008B80000F068FA002211466FF00A0000F062FAB0
:1008C800002211466FF0090000F05CFA0022114680
:1008D8006FF0040000F056FA002211466FF0030092
:1008E80000F050FA002211466FF0010000F04AFAB9
:1008F800002211464FF0FF3000F044FA03B05DF8D3
:1009080004FB00BF001002407047FEE7FEE7FEE769
:10091800FEE770477047704708B500F013FA00F01B
:100928008AFA08BD84B00368154A934207D0154A6D
:1009380093420FD0144A934217D004B07047134B18
:100948009A6D42F002029A659B6D03F002030193CF
:10095800019BF2E70D4B9A6D42F004029A659B6D7C
:1009680003F004030293029BE7E7084B9A6D42F0F9
:1009780008029A659B6D03F008030393039BDCE769
:100988000004004000080040000C00400010024035
:1009980000B587B003681A4A934208D0194A9342AF
:1009A80012D0194A93421DD007B05DF804FB3823D2
:1009B800019302230293002203920492059301A952
:1009C800124800F03DFAEFE74FF4805301930223F9
:1009D8000293002203920492059301A90C4800F0A7
:1009E8002FFAE1E7012301930223029300220392E5
:1009F8000492059301A94FF0904000F021FAD3E743
:100A08000004004000080040000C004000100048AE
:100A1800000C004800B58BB02448254B0360002328
:100A280043608360C3600361836101F0BBFD20BB49
:100A380000230793099307A91C4801F0AFFE08BBE0
:100A4800602300930022019202920492694617489B
:100A580001F00AFED8B904226946144801F004FEE0
:100A6800D0B908226946114801F0FEFDC8B90F48FF
:100A7800FFF78EFF0BB05DF804FB41210D48FFF72F
:100A880041FED5E748210B48FFF73CFED8E7512146
:100A98000848FFF737FEDEE756210648FFF732FE23
:100AA800DFE75B210348FFF72DFEE0E75401002054
:100AB80000040040642F000800B58BB019481A4B99
:100AC8000360002343608360C3600361836101F0B6
:100AD80069FDC0B900230793099307A9114801F0DC
:100AE8005DFEA8B96023009300220192029204924D
:100AF80069460C4801F0B8FD78B90A48FFF748FF85
:100B08000BB05DF804FB6F210848FFF7FBFDE1E738
:100B180076210648FFF7F6FDE4E77F210348FFF753
:100B2800F1FDEAE7D400002000080040642F000827
:100B380000B58BB019481A4B0360002343608360EB
:100B4800C3600361836101F02DFDC0B900230793E1
:100B5800099307A9114801F021FEA8B96023009361
:100B6800002201920292049269460C4801F07CFD31
:100B780078B90A48FFF70CFF0BB05DF804FB932126
:100B88000848FFF7BFFDE1E79A210648FFF7BAFDDD
:100B9800E4E7A3210348FFF7B5FDEAE714010020C5
:100BA800000C0040642F000808B50C480C4B03608B
:100BB8004FF4E133436000238360C36003610C2278
:100BC80042618361C3610362436202F0F0F800B9D5
:100BD80008BD45210348FFF795FDF9E7940100207A
:100BE80000380140982F000808B50C480C4B0360EA
:100BF8004FF4E133436000238360C36003610C2238
:100C080042618361C3610362436202F0D0F800B9B4
:100C180008BD5A210348FFF775FDF9E70C020020CB
:100C280000440040982F000800B589B003681F4AA7
:100C3800934205D01E4A93421DD009B05DF804FBCB
:100C48001C4B1A6E42F480421A661B6E03F48043F2
:100C58000193019B4FF4C063039302230493002381
:100C68000593032306930723079303A94FF09040A6
:100C780000F0E6F8E1E70F4B9A6D42F400329A650E
:100C88009B6D03F400330293029B0C23039302230E
:100C9800049300230593032306930723079303A9CB
:100CA8004FF0904000F0CCF8C7E700BF0038014093
:100CB80000440040001002400F49D1F8883043F446
:100CC8007003C1F888300D4B1A6842F001021A60AF
:100CD800002098601A6822F0A85222F410221A60A4
:100CE8004FF48052DA601A6822F480221A60986100
:100CF8004FF000638B60704700ED00E00010024089
:100D080010B50446074B1868074BA3FB0030800951
:100D180000F06AF8002221464FF0FF3000F032F868
:100D2800002010BD00000020D34D621008B503203C
:100D380000F016F80020FFF7E3FFFFF79DFD002005
:100D480008BD0000024A136801331360704700BFF2
:100D580084020020014B1868704700BF84020020FD
:100D6800074AD36823F4E0631B041B0C000200F459
:100D7800E060184340F0BF6040F40030D060704736
:100D880000ED00E030B4164BDB68C3F30223C3F177
:100D98000704042C28BF04241D1D062D17D9033B66
:100DA800012505FA04F4013C2140994005FA03F3B2
:100DB800013B1340194300280BDB0901C9B200F1BC
:100DC800604000F5614080F8001330BC7047002394
:100DD800E6E700F00F000901C9B2024B1954F4E725
:100DE80000ED00E014ED00E00138B0F1807F0AD298
:100DF800064B5860F021064A82F8231000209860BC
:100E080007221A6070470120704700BF10E000E019
:100E180000ED00E0042805D0054A136823F0040318
:100E280013607047024A136843F004031360704765
:100E380010E000E0704708B5FFF7FCFF08BD0000B0
:100E4800F0B583B000239AE04FEAD30E0EF1080EF6
:100E580050F82E4003F00706B6000F27B74024EAE3
:100E680007040F6907FA06F6344340F82E4095E068
:100E780086682640CF6807FA0EF73E4386604668C4
:100E880026EA05064F68C7F300179F403E434660B1
:100E98004E6806F00307032F00F09B80C5682C40BE
:100EA8008D6805FA0EF52C43C4604C6814F0805F19
:100EB80064D0544C256E45F001052566246E04F077
:100EC80001040194019C9C08A61C4F4D55F826501E
:100ED80003F00306B7000F26BE4025EA0605B0F169
:100EE800904F00F08180494EB0427FD006F5806671
:100EF800B0427DD006F58066B0427BD006F58066AC
:100F0800B04279D006F58066B04277D006F58066A3
:100F1800B04267D00726BE40354302343A4E46F801
:100F280024503B4C2568D44305EA04064F6817F45F
:100F3800803F01D042EA0506354D2E606D6804EA0F
:100F480005064F6817F4003F01D042EA0506304D08
:100F58006E60AD6804EA05064F6817F4801F01D07B
:100F680042EA05062A4DAE60ED682C404E6816F43C
:100F7800001F01D042EA0504254AD46001330A68FB
:100F880032FA03F43CD001259D402A40F6D04C6843
:100F9800022C3FF459AF122C3FF456AF06684FEAC3
:100FA800430E032404FA0EF4E44326404F6807F086
:100FB800030707FA0EF73E4306604E68771E012FB7
:100FC8007FF656AF112E3FF453AF122E7FF460AF69
:100FD8004EE7C76A27EA0505C6F3C0069E402E43BA
:100FE800C6625BE7062696E7002694E7012692E7A5
:100FF800022690E703268EE704268CE705268AE773
:1010080003B0F0BD00100240000001400004004899
:10101800000401400AB9816270478161704710B5C8
:101028000446002847D090F84130002B48D02423AC
:1010380084F841302268136823F0010313602268A2
:10104800636823F0706313612268936823F4004394
:101058009360E368012B38D02268A36843F4044303
:101068009360E368022B36D02268536843F000731C
:1010780043F4004353602268D36823F40043D360E9
:101088002268236961690B43A16943EA0123D3609C
:101098002268E369216A0B4313602268136843F0EE
:1010A8000103136000206064202384F8413020632A
:1010B80084F8420010BD4FF400734364012010BD52
:1010C80080F84030FFF7F4FAB1E72268A36843F4E8
:1010D80000439360C5E723684FF400625A60C3E792
:1010E80090F84130DBB2202B01D00220704790F8F5
:1010F8004030012B20D0012380F84030242380F891
:1011080041300268136823F0010313600268136812
:1011180023F480531360026813681943116002684E
:10112800136843F001031360202380F84130002343
:1011380080F84030184670470220704790F84130D8
:10114800DBB2202B01D00220704790F84030012BF1
:101158001ED0012380F84030242380F841300268F3
:10116800136823F0010313600268136823F47063A3
:1011780043EA012111600268136843F00103136018
:10118800202380F84130002380F84030184670470B
:1011980002207047024B186800F4C060704700BF17
:1011A80000700040B0F5007F0FD0204B1B6803F49F
:1011B800C063B3F5806F37D01C4A136823F4C0634B
:1011C80043F48063136000207047184B1B6803F4D6
:1011D800C063B3F5007F23D0144A136823F4C063B7
:1011E80043F400731360124B1B6802F1467202F558
:1011F8005B3202F28322A2FB03239A0C322303FB05
:1012080002F300E0013B23B1084A526912F4806FEF
:10121800F8D1064B5B6913F4806F03D00320704745
:101228000020704700207047002070470070004081
:101238000000002030B583B00546204B9B6D13F0AD
:10124800805F0BD0FFF7A6FFB0F5007F17D0802D89
:101258001FD82DD0702D2DD000211BE0174CA36D69
:1012680043F08053A365A36D03F080530193019B62
:10127800FFF790FFA36D23F08053A365E4E7802D6B
:1012880003D9A02D03D9022104E0002102E00121A5
:1012980000E003210A4A136823F007030B43136095
:1012A800136803F00703994206D0012003B030BD4C
:1012B8000221EFE70121EDE70020F7E700100240E7
:1012C800002002403B4B9B6813F00C0F1AD0394B9F
:1012D8009B6803F00C030C2B0ED0364B9B6803F075
:1012E8000C03042B2FD0334B9B6803F00C03082B03
:1012F8002CD00020014618E02E4BDB6803F00303D6
:10130800012BEAD12B4B1B6813F0080F14D1294B82
:10131800D3F89430C3F30323274A52F82310254BFC
:101328009B6813F00C0F0CD00020224A936803F03E
:101338000C030C2B0DD070471E4B1B68C3F3031313
:10134800EAE70846F1E71D480021EEE71C480021BE
:10135800EBE71346D26802F00302DB68C3F302131B
:101368000133022A0AD0032A1AD0B1FBF3F3114A37
:10137800D068C0F3062000FB03F008E00F48B0FB7C
:10138800F3F30C4AD068C0F3062000FB03F0094BC6
:10139800DB68C3F3416301335B00B0FBF3F0CAE7DA
:1013A8000748B0FBF3F3034AD068C0F3062000FBFC
:1013B80003F0ECE700100240802E00080024F4003F
:1013C80000127A00002800F0A88270B582B00446A6
:1013D800036813F0100F3FD0974B9B6813F00C0F66
:1013E80040F09280944B1B6813F0020F03D083697E
:1013F800002B00F09982206A8F4B1B6813F0080FAE
:1014080062D08D4B1B6803F0F003834263D2FFF771
:1014180011FF002840F08A82874B1A6842F00802C0
:101428001A601A6822F0F002216A0A431A605A68A0
:1014380022F47F42E16942EA01225A60FFF742FF43
:101448007D4B9B68C3F303137C4AD35CD8407C4B29
:1014580018600020FFF754FC236813F0010F00F018
:10146800A180754B9B6803F00C03082B00F091805A
:10147800714B9B6803F00C030C2B00F083806368AE
:10148800B3F5803F00F0B580B3F5A02F00F0B7802A
:10149800694B1A6822F480321A601A6822F4802292
:1014A8001A606368002B00F0B780FFF753FC05460D
:1014B800614B1B6813F4003F74D1FFF74BFC401BD2
:1014C8006428F5D9032038E25B4BD3F894301B0924
:1014D80003F0F00399E7584B1A6842F008021A60C3
:1014E8001A6822F0F002216A0A431A605A6822F444
:1014F8007F42E16942EA01225A60206AFFF79AFEB8
:1015080000289BD0012018E2836933B34A4A136844
:1015180043F001031360FFF71DFC0546464B1B68AB
:1015280013F0020F06D1FFF715FC401B0228F5D96E
:10153800032002E2404B1A6842F008021A601A6857
:1015480022F0F002216A0A431A605A6822F47F42A4
:10155800E16942EA01225A607EE7374A136823F0BC
:1015680001031360FFF7F6FB0546334B1B6813F0C6
:10157800020F3FF471AFFFF7EDFB401B0228F4D9CF
:101588000320DAE12C4BDB6803F00303032B7FF421
:1015980076AF294B1B6813F4003F03D06368002B18
:1015A80000F0C681236813F0020F62D0224B9B68BB
:1015B80003F00C03042B4BD01F4B9B6803F00C0368
:1015C8000C2B3FD0E368002B79D01B4A136843F4F7
:1015D80080731360FFF7BEFB0546174B1B6813F4B7
:1015E800806F63D1FFF7B6FB401B0228F5D90320B3
:1015F800A3E1114A136843F48033136051E703F100
:101608008043A3F53C331A6842F480221A601A68B2
:1016180042F480321A6044E7FFF79CFB0546064B0C
:101628001B6813F4003FBDD0FFF794FB401B6428F0
:10163800F5D9032081E100BF00100240B02E000858
:1016480000000020B64BDB6803F00303022BB9D17E
:10165800B34B1B6813F4806F03D0E368002B00F0D2
:101668006981AF4A536823F0F853216943EA01635B
:101678005360236813F0080F4CD063699BB3A84AE2
:10168800D2F8943043F00103C2F89430FFF762FBBC
:101698000546A34BD3F8943013F0020F3AD1FFF765
:1016A80059FB401B0228F4D9032046E19C4A5368A1
:1016B80023F0F853216943EA01635360D9E7984A54
:1016C800136823F480731360FFF744FB0546944BBB
:1016D8001B6813F4806FCCD0FFF73CFB401B02283B
:1016E800F5D9032029E18E4AD2F8943023F001037A
:1016F800C2F89430FFF72EFB0546894BD3F8943097
:1017080013F0020F06D0FFF725FB401B0228F4D97F
:10171800032012E1236813F0040F7BD0804B9B6DEC
:1017280013F0805F36D17E4B9A6D42F080529A65F5
:101738009B6D03F080530193019B0125794B1B6836
:1017480013F4807F28D0A368012B39D0052B3FD014
:10175800734BD3F8902022F00102C3F89020D3F8FD
:10176800902022F00402C3F89020A368002B3DD0FB
:10177800FFF7F0FA06466A4BD3F8903013F0020FE1
:1017880046D1FFF7E7FA801B41F288339842F2D935
:101798000320D2E00025D1E7624A136843F480733E
:1017A8001360FFF7D7FA06465E4B1B6813F4807F79
:1017B800C9D1FFF7CFFA801B0228F5D90320BCE076
:1017C800574AD2F8903043F00103C2F89030CCE782
:1017D800534BD3F8902042F00402C3F89020D3F87A
:1017E800902042F00102C3F89020BEE7FFF7B2FA5A
:1017F80006464B4BD3F8903013F0020F08D0FFF792
:10180800A9FA801B41F288339842F2D9032094E068
:10181800002D35D1A36A002B00F08E80404A9268D3
:1018280002F00C020C2A00F08A80022B2ED03C4BCE
:101838001A6822F080721A601B6813F0006F09D1D1
:10184800374B1B6813F0005F04D1354AD36823F087
:101858000303D360324AD36823F0887323F48033B8
:10186800D360FFF777FA04462D4B1B6813F0007F0F
:1018780051D0FFF76FFA001B0228F5D903205CE06E
:10188800274A936D23F080539365C3E7244A13686E
:1018980023F080731360FFF75DFA0546204B1B6841
:1018A80013F0007F06D0FFF755FA401B0228F5D940
:1018B800032042E0236B5A1E636B1B0243EA0213A8
:1018C800A26B120943EA4243E26A1343E26B5208ED
:1018D800013A43EA4253226C5208013A43EA42630E
:1018E8000F4AD360136843F080731360D36843F0E2
:1018F8008073D360FFF72EFA0446094B1B6813F078
:10190800007F06D1FFF726FA001B0228F5D903202D
:1019180013E0002011E000200FE00120704700BF15
:101928000010024000700040012006E0012004E0A1
:10193800012002E0012000E0002002B070BD01207B
:10194800FBE700BF002800F0998070B504464D4BB6
:101958001B6803F007038B420CD24A4A136823F032
:1019680007030B431360136803F00703994201D080
:10197800012070BD0D46236813F0010F39D063684C
:10198800032B09D0022B26D063BB3F4A126812F002
:10199800020F06D1012070BD3B4A126812F0007F89
:1019A8006ED039498A6822F0030213438B60FFF72F
:1019B800D1F90646344B9B6803F00C036268B3EB1D
:1019C800820F16D0FFF7C6F9801B41F28833984280
:1019D800F0D9032070BD2C4A126812F4003FE0D100
:1019E800012070BD284A126812F4806FD9D10120F5
:1019F80070BD236813F0020F06D0234A936823F0C2
:101A0800F003A1680B4393601E4B1B6803F00703A8
:101A18009D420CD21B4A136823F007032B43136023
:101A2800136803F007039D4201D0012070BD2368AD
:101A380013F0040F06D0144A936823F4E063E168B6
:101A48000B439360236813F0080F07D00E4A93687E
:101A580023F46053216943EAC1039360FFF732FC22
:101A6800094B9B68C3F30313084AD35CD840084B5F
:101A780018600020FFF744F9002070BD012070476E
:101A8800012070BD0020024000100240B02E000866
:101A980000000020014B1868704700BF00000020BC
:101AA80008B5FFF7F7FF044B9B68C3F30223034A0B
:101AB800D35CD84008BD00BF00100240C02E00080B
:101AC80008B5FFF7E7FF044B9B68C3F3C223034A3B
:101AD800D35CD84008BD00BF00100240C02E0008EB
:101AE800F8B55E4BDB6813F0030F19D05B4BDB686E
:101AF80003F003030268934204D00124002C48D069
:101B08002046F8BD002A42D0544BDB68C3F30213C9
:101B180001334268934201D00124EFE70024EDE746
:101B28000368022B18D0032B1DD0012B0DD00124E4
:101B3800002CE3D1494EF26822F073024568013D5A
:101B480043EA05131343F360D8E7444A126812F0D6
:101B5800020F14D00024EBE7404A126812F4806F99
:101B68000FD00024E4E73D4A126812F4003F0AD17E
:101B78003A4A126812F4802F07D00024D8E70124CB
:101B8800D6E70124D4E70024D2E70124D0E70124D2
:101B9800B4E70F460546314A136823F080631360A3
:101BA800FFF7D8F806462D4B1B6813F0006F05D0D9
:101BB800FFF7D0F8801B0228F5D90324002C9FD109
:101BC8004FBB26490B6923F41F3323F44073A868DD
:101BD800EA681209520442EA002213430B611F4AC1
:101BE800136843F080631360FFF7B4F806461B4B95
:101BF8001B6813F0006F05D1FFF7ACF8801B0228B3
:101C0800F5D90324002C7FF47BAF144A1369A96922
:101C18000B43136174E7012F0FD01048026922F0BB
:101C2800C06222F4FE42A9686B695B08013B5B064F
:101C380043EA012313430361D1E70848026922F408
:101C4800C00222F4FE42A9682B695B08013B5B05D0
:101C580043EA012313430361C1E700BF00100240B8
:101C6800F8B5554BDB6813F0030F19D0524BDB68FE
:101C780003F003030268934204D00124002C48D0E7
:101C88002046F8BD002A42D04B4BDB68C3F3021351
:101C980001334268934201D00124EFE70024EDE7C5
:101CA8000368022B18D0032B1DD0012B0DD0012463
:101CB800002CE3D1404EF26822F073024568013DE2
:101CC80043EA05131343F360D8E73B4A126812F05E
:101CD800020F14D00024EBE7374A126812F4806F21
:101CE8000FD00024E4E7344A126812F4003F0AD106
:101CF800314A126812F4802F07D00024D8E7012453
:101D0800D6E70124D4E70024D2E70124D0E7012450
:101D1800B4E70F460546284A136823F0805313603A
:101D2800FFF718F80646244B1B6813F0005F05D030
:101D3800FFF710F8801B0228F5D90324002C9FD147
:101D48004FBB1D494B6923F41F3323F44073A86824
:101D5800EA681209520442EA002213434B61164A08
:101D6800136843F080531360FEF7F4FF0646124BE6
:101D78001B6813F0005F05D1FEF7ECFF801B0228FB
:101D8800F5D90324002C7FF47BAF0B4A53696969AA
:101D98000B43536174E70848426922F0C06222F499
:101DA800FE42A9682B695B08013B5B0643EA0123F5
:101DB80013434361D3E700BF001002402DE9F0410F
:101DC80082B00446036813F4006F2FD0436EB3F556
:101DD800800F23D014D9B3F5000F18D0B3F5400FF6
:101DE80022D10026002E40F09680624AD2F8883030
:101DF80023F44003616E0B43C2F88830374617E07E
:101E080093B900210430FFF76BFE0646EAE7594A0A
:101E1800D36843F48033D3600026E3E70021203001
:101E2800FFF71EFF0646DDE70126DBE700273E46F3
:101E3800236813F4805F15D0A36EB3F1807F79D047
:101E48006BD9B3F1007F6FD0B3F1407F79D1002E09
:101E580079D1484AD2F8883023F04073A16E0B43F9
:101E6800C2F88830236813F4003F00F08C80414B9F
:101E78009B6D13F0805F68D13E4B9A6D42F08052A3
:101E88009A659B6D03F080530193019B4FF0010805
:101E9800394A136843F480731360FEF75BFF054605
:101EA800354B1B6813F4807F05D1FEF753FF401BA9
:101EB8000228F5D90326002E60D12E4BD3F8903096
:101EC80013F4407316D0D4F88020934212D0294AD4
:101ED800D2F8903023F44073D2F8901041F4803156
:101EE800C2F89010D2F8901021F48031C2F8901006
:101EF800C2F8903013F0010F2AD1002E40F02C8147
:101F08001C4AD2F8903023F44073D4F880100B4365
:101F1800C2F8903033E037468AE793B90021201D94
:101F2800FFF7DEFD064692E7124AD36843F4803392
:101F3800D3608CE7002104F12000FFF791FE0646EC
:101F480085E7012683E737468CE74FF000089FE7CF
:101F5800FEF700FF0546074BD3F8903013F0020F49
:101F6800CBD1FEF7F7FE401B41F288339842F2D9F5
:101F78000326C2E700100240007000403746B8F15F
:101F8800000F40F0EB80236813F0010F08D08C4A53
:101F9800D2F8883023F00303A16B0B43C2F88830D2
:101FA800236813F0020F08D0854AD2F8883023F04E
:101FB8000C03E16B0B43C2F88830236813F0040F5D
:101FC80008D07F4AD2F8883023F03003216C0B43C5
:101FD800C2F88830236813F0080F08D0784AD2F87E
:101FE800883023F0C003616C0B43C2F88830236843
:101FF80013F0100F08D0724AD2F8883023F44073D7
:10200800A16C0B43C2F88830236813F0200F08D066
:102018006B4AD2F8883023F44063E16C0B43C2F872
:102028008830236813F4007F08D0654AD2F88830D6
:1020380023F44023E16D0B43C2F88830236813F47E
:10204800806F08D05E4AD2F8883023F44013216E9E
:102058000B43C2F88830236813F0400F08D0584A61
:10206800D2F8883023F44053216D0B43C2F88830EE
:10207800236813F0800F08D0514AD2F8883023F42F
:102088004043616D0B43C2F88830236813F4807FA6
:1020980008D04B4AD2F8883023F44033A16D0B4363
:1020A800C2F88830236813F4002F0FD0444AD2F8BE
:1020B800883023F04063E16E0B43C2F88830E36E4A
:1020C800B3F1006F50D0B3F1806F52D0236813F48E
:1020D800802F0FD03A4AD2F8883023F04063216F1E
:1020E8000B43C2F88830236FB3F1006F49D0B3F1C6
:1020F800806F4BD0236813F4804F0FD0304AD2F84A
:10210800883023F04053616F0B43C2F88830636F07
:10211800B3F1805F42D0B3F1005F47D0236813F476
:10212800004F08D0264AD2F8883023F08043A16FA8
:102138000B43C2F88830236813F4803F08D0204A44
:10214800D2F8883023F00043E16F0B43C2F888309F
:10215800384602B0BDE8F081374610E7184A936D5B
:1021680023F0805393650EE7D36843F48013D3605C
:10217800ACE70121201DFFF7B3FC0028A6D00746D5
:10218800A4E7D36843F48013D360B3E70121201D8B
:10219800FFF7A6FC0028ADD00746ABE70221201DBB
:1021A800FFF79EFC0028B9D00746B7E7022104F1E3
:1021B8002000FFF755FD0028B0D00746AEE700BF66
:1021C80000100240002853D010B504460023836253
:1021D80090F85D30002B40D0022384F85D302268EF
:1021E800136823F040031360E368B3F5E06F39D94F
:1021F8000021B3F5706F04D0B3F5E06F01D0002271
:10220800A262226B22B9B3F5E06F2ED902232363B1
:1022180022686368A0680343206903436069034335
:10222800A06900F400700343E0690343206A034394
:10223800A06A034313602268638B03F00403606A97
:102248000343606B0343E06803430B435360002080
:102258002066012384F85D3010BD80F85C30FEF7FD
:10226800E5FAB9E74FF48051C3E701232363CFE7C9
:102278000120704730B4036A23F001030362036A44
:102288004468826922F4803222F073020D682A437E
:1022980023F002038D682B431C4DA8420FD005F58F
:1022A8000065A8420BD005F54065A84207D005F5A2
:1022B8008065A84203D005F58065A84205D123F0C2
:1022C8000803CD682B4323F00403104DA8420FD018
:1022D80005F50065A8420BD005F54065A84207D072
:1022E80005F58065A84203D005F58065A84205D1AB
:1022F80024F440744D692C438D692C4344608261F9
:102308004A684263036230BC704700BF002C01403A
:1023180030B4036A23F480730362036A4468C269B1
:1023280022F4803222F073020D682A4323F40073EA
:102338008D6843EA0523184DA84225D005F50065A8
:10234800A84221D0144DA8420FD005F50065A84237
:102358000BD005F54065A84207D005F58065A84271
:1023680003D005F58065A84207D124F440544D698F
:1023780044EA05148D6944EA05144460C2614A6858
:10238800C263036230BC704723F40063CD6843EA3C
:10239800052323F48063D5E7002C014030B4036A99
:1023A80023F480530362036A4468C26922F080728E
:1023B80022F4E6420D6842EA052223F400538D68B0
:1023C80043EA05330F4DA8420FD005F50065A84232
:1023D8000BD005F54065A84207D005F58065A842F1
:1023E80003D005F58065A84204D124F480444D69E2
:1023F80044EA85144460C2614A680264036230BCDE
:10240800704700BF002C014030B4036A23F48033C6
:102418000362036A4468426D22F4803222F070023B
:102428000D682A4323F400338D6843EA05430F4DB2
:10243800A8420FD005F50065A8420BD005F5406508
:10244800A84207D005F58065A84203D005F5806548
:10245800A84204D124F480344D6944EA0524446038
:1024680042654A688265036230BC7047002C0140AF
:1024780030B4036A23F480130362036A4468426D2C
:1024880022F0807222F4E0420D6842EA052223F429
:1024980000138D6843EA05530F4DA8420FD005F588
:1024A8000065A8420BD005F54065A84207D005F5A0
:1024B8008065A84203D005F58065A84204D124F4BC
:1024C80080244D6944EA8524446042654A68C265AF
:1024D800036230BC704700BF002C01400368304ADB
:1024E800904212D0B0F1804F0FD0A2F594329042B2
:1024F8000BD002F58062904207D002F580629042CC
:1025080003D002F59432904203D123F070034A6855
:102518001343234A90421ED0B0F1804F1BD0A2F53E
:102528009432904217D002F58062904213D002F59F
:10253800806290420FD002F5943290420BD002F59F
:102548004062904207D002F58062904203D002F5C3
:102558008062904203D123F44073CA68134323F086
:1025680080034A69134303608B68C3620B68836204
:102578000B4B98420FD003F5006398420BD003F53C
:102588004063984207D003F58063984203D003F56F
:102598008063984201D10B6903630123436170474B
:1025A800002C0140A8B110B5044690F83D305BB14D
:1025B800022384F83D30211D2068FFF78FFF012397
:1025C80084F83D30002010BD80F83C30FEF7AAF9B1
:1025D800EEE701207047000030B4036A23F01003CF
:1025E8000362036A4468826922F0807222F4E64238
:1025F8000D6842EA052223F020038D6843EA05139B
:10260800184DA84225D005F50065A84221D0154DE2
:10261800A8420FD005F50065A8420BD005F5406526
:10262800A84207D005F58065A84203D005F5806566
:10263800A84207D124F440644D6944EA85048D69B1
:1026480044EA8504446082614A688263036230BC5C
:10265800704723F08003CD6843EA051323F0400355
:10266800D5E700BF002C014038B590F83C30012B6D
:1026780000F092800D460446012380F83C30022386
:1026880080F83D30142A1ED8DFE802F00B1D1D1D0E
:10269800241D1D1D381D1D1D4B1D1D1D5F1D1D1DD0
:1026A80072000068FFF7E6FD2268936943F00803AB
:1026B80093612268936923F0040393612268936904
:1026C80029690B439361012384F83D30002084F885
:1026D8003C0038BD0068FFF77FFF2268936943F428
:1026E800006393612268936923F48063936122688D
:1026F8009369296943EA01239361E4E70068FFF7D6
:1027080007FE2268D36943F00803D3612268D369BE
:1027180023F00403D3612268D36929690B43D36189
:10272800D1E70068FFF73AFE2268D36943F40063F3
:10273800D3612268D36923F48063D3612268D369A3
:10274800296943EA0123D361BDE70068FFF75CFE0E
:102758002268536D43F0080353652268536D23F0D4
:10276800040353652268536D29690B435365AAE72F
:102778000068FFF77DFE2268536D43F400635365DC
:102788002268536D23F4806353652268536D296969
:1027980043EA0123536596E7022038BD90F83C30A0
:1027A800012B29D030B4012380F83C30022380F873
:1027B8003D3004686368A268104DAC4217D005F537
:1027C8000065AC4213D023F070030D682B4322F050
:1027D800800289680A43636003689A60012380F86D
:1027E8003D30002380F83C30184630BC704723F455
:1027F80070034D682B43E6E702207047002C014028
:102808002DE9784B044601688368026913434269DD
:102818001343C269134308689F4A024013430B607D
:102828002268536823F44053E1680B435360A3695B
:1028380022689A498A4201D0216A0B43916821F49F
:1028480030610B4393602368954A934227D0954A99
:10285800934238D0944A93424ED0944A934261D0DE
:10286800934A934274D08D4A934200F08A8010258F
:102878008A4A934200F0AA80E369B3F5004F00F05A
:102888002C81082D00F2B781DFE815F076018D0163
:102898009701B501A201B501B501B501AC0102F579
:1028A8005842D2F8882002F00302032A09D8DFE848
:1028B80002F0020481060125DAE70425D8E7082595
:1028C800D6E71025D4E702F5E632D2F8882002F0E0
:1028D8000C020C2A0ED8DFE802F0070D0D0D090DC9
:1028E8000D0D6F0D0D0D0B000025C1E70425BFE789
:1028F8000825BDE71025BBE702F5E432D2F88820A9
:1029080002F03002102A09D005D9202A56D0302AE0
:1029180006D10825ACE71AB90025A9E70425A7E7D9
:102928001025A5E702F5E232D2F8882002F0C002AD
:10293800402A09D005D9802A42D0C02A06D10825C4
:1029480096E71AB9002593E7042591E710258FE744
:1029580002F5E032D2F8882002F44072B2F5807FA6
:102968000BD007D9B2F5007F2CD0B2F5407F06D145
:1029780008257DE71AB900257AE7042578E71025A8
:1029880076E702F5C832D2F8882002F44062B2F540
:10299800806F0BD007D9B2F5006F15D0B2F5406F34
:1029A80006D1082564E71AB9002561E704255FE721
:1029B80010255DE702255BE7022559E7022557E761
:1029C800022555E7022553E7022551E7082D11D8BE
:1029D800DFE805F0081005100C101010130035483A
:1029E80000260DE0FFF75CF8002609E0FEF76AFC18
:1029F800002605E00020012602E04FF400400026F2
:102A0800002800F0CA80626802EB42039842C0F0D6
:102A1800F580B0EB023F00F2F380082D5AD8DFE8CA
:102A280005F005591F59295959594F00FFF738F82A
:102A380000234FEA10694FEA00286268500818EB33
:102A4800000B49F1000C58466146FDF7CFFBA0F595
:102A58004072194B9A4200F2D5802368D8609CE0F6
:102A68005508002315480021401941F10001FDF7E0
:102A7800BDFBECE7FEF726FC00234FEA10694FEA9E
:102A880000286268500818EB000B49F1000C584602
:102A98006146FDF7ABFBDAE7F369FFEF0080004022
:102AA800003801400044004000480040004C00400D
:102AB800005000400024F400FFFC0F00000024F444
:102AC80050080021002310F5000041F10001FDF736
:102AD8008DFBBCE701260020B9E7082D49D8DFE8BF
:102AE80005F0051E2948344848483F00FEF7D8FF3E
:102AF8006268530803EB4003B3FBF2F39BB2002672
:102B0800A3F110014FF6EF7291427DD89AB222F0EC
:102B18000F02C3F3420313432268D3603DE0FEF77C
:102B2800CFFF6268530803EB4003B3FBF2F39BB299
:102B38000026E5E76268530803F1F47303F5904350
:102B4800B3FBF2F39BB20026DAE7FEF7BBFB626841
:102B5800530803EB4003B3FBF2F39BB20026CFE725
:102B68006268530803F58033B3FBF2F39BB2002687
:102B7800C6E701260023C3E7FEF792FF636800EB70
:102B88005300B0FBF3F080B20026A0F110024FF61C
:102B9800EF739A423AD82368D860002323666366A5
:102BA8003046BDE8788BFEF78BFF636800EB530077
:102BB800B0FBF3F080B20026E7E76368580800F539
:102BC800740000F51050B0FBF3F080B20026DCE78B
:102BD800FEF778FB636800EB5300B0FBF3F080B2BC
:102BE8000026D2E76368580800F50040B0FBF3F010
:102BF80080B20026C9E701260020C6E70126CCE7F7
:102C08000126CAE70126C8E70126C6E70126C4E768
:102C1800436A13F0010F06D00268536823F40033A7
:102C2800816A0B435360436A13F0020F06D00268AF
:102C3800536823F48033C16A0B435360436A13F02B
:102C4800040F06D00268536823F48023016B0B43FA
:102C58005360436A13F0080F06D00268536823F4E0
:102C68000043416B0B435360436A13F0100F06D0C7
:102C78000268936823F48053816B0B439360436A23
:102C880013F0200F06D00268936823F40053C16B39
:102C98000B439360436A13F0400F0AD002685368ED
:102CA80023F48013016C0B435360036CB3F5801F4E
:102CB8000BD0436A13F0800F06D00268536823F4E0
:102CC8000023816C0B43536070470268536823F4F8
:102CD800C003416C0B435360EBE72DE9F041054617
:102CE8000F4616469846069C2B68DB6937EA0303AD
:102CF8000CBF01230023B3421ED1B4F1FF3FF3D030
:102D08002CB1FEF727F8A0EB08008442ECD22A6821
:102D1800136823F4D07313602A68936823F00103BF
:102D28009360202385F8713085F87230002385F888
:102D380070300320BDE8F0810020BDE8F08130B597
:102D480083B0044600234367FEF704F8054623686A
:102D58001B6813F0080F0ED123681B6813F0040FCB
:102D680017D1202384F8713084F87230002084F859
:102D7800700003B030BD6FF07E430093034600221D
:102D88004FF400112046FFF7A8FF0028E4D00320E5
:102D9800EFE76FF07E4300932B4600224FF480014B
:102DA8002046FFF79AFF0028DBD00320E1E778B33D
:102DB80010B5044690F871300BB3242384F87130B1
:102DC8002268136823F0010313602046FFF718FDFB
:102DD80001281FD0636ABBB92268536823F4904363
:102DE80053602268936823F02A039360226813686B
:102DF80043F0010313602046FFF7A1FF10BD80F8E0
:102E08007030FDF711FFD8E72046FFF701FFE3E731
:102E18000120704710BD000070B50D4E0D4CA41B6D
:102E2800A4100025A54209D10B4E0C4C00F018F84F
:102E3800A41BA4100025A54205D170BD56F8253065
:102E480098470135EEE756F8253098470135F2E7FF
:102E5800D82F0008D82F0008D82F0008DC2F00082A
:102E6800F8B500BFF8BC08BC9E467047F8B500BF6F
:082E7800F8BC08BC9E4670473F
:102E8000A0860100400D0300801A060000350C00EA
:102E900040420F0080841E0000093D0000127A00AD
:102EA0000024F40000366E010048E801006CDC02EA
:102EB00000000000000000000102030406070809EA
:102EC0000000000001020304453A2F437562655F6C
:102ED00070726F6A656374732F4C565F73696465B3
:102EE0005F75632F436F6E74726F6C5F75632F53E2
:102EF00072632F6932632E6300000000453A2F434E
:102F00007562655F70726F6A656374732F4C565F8C
:102F1000736964655F75632F436F6E74726F6C5F66
:102F200075632F5372632F6D61696E2E630000000D
:102F3000453A2F437562655F70726F6A656374739B
:102F40002F4C565F736964655F75632F436F6E74B2
:102F5000726F6C5F75632F5372632F7370692E638A
:102F600000000000453A2F437562655F70726F6A1A
:102F7000656374732F4C565F736964655F75632F67
:102F8000436F6E74726F6C5F75632F5372632F742F
:102F9000696D2E6300000000453A2F437562655F3E
:102FA00070726F6A656374732F4C565F73696465E2
:102FB0005F75632F436F6E74726F6C5F75632F5311
:102FC00072632F75736172742E630000000000003D
:082FD00054D2FF7F0100000054
:082FD800AD010008000000003B
:082FE000890100080000000057
:082FE80000093D00000000009B
:0400000508000505E5
:00000001FF
